:020000040800F2
:1000000020100020050100084F2E00084F26000890
:100010004D2E0008110A0008A93600080000000053
:1000200000000000000000000000000099310008FE
:10003000130A000800000000BD3000089B310008D2
:100040001F0100081F0100081F0100081F01000810
:100050001F0100081F0100081F0100081F01000800
:100060001F0100081F0100081F0100081F010008F0
:100070001F0100081F0100081F0100081F010008E0
:100080001F0100081F0100081F0100081F010008D0
:100090001F0100081F0100081F0100081F010008C0
:1000A0001F0100081F0100081F0100081F010008B0
:1000B000013200081F0100081F0100081F0100088D
:1000C0001F0100081F0100081F0100081F01000890
:1000D0001F0100081F010008953600081F010008D5
:1000E0001F0100081F0100081F010008DFF810D0E1
:1000F00000F028FA004800472F410008AFF30080C5
:10010000201000200648804706480047FEE7FEE72B
:10011000FEE7FEE7FEE7FEE7FEE7FEE7FEE7FEE7B7
:10012000FD310008ED00000840EA01039B0703D001
:1001300009E008C9121F08C0042AFAD203E011F826
:10014000013B00F8013B521EF9D27047D2B201E0E8
:1001500000F8012B491EFBD270470022F6E710B5CC
:1001600013460A4604461946FFF7F0FF204610BD25
:1001700030B505462A460B4612F8010B13F8014B21
:1001800008B1A042F8D01CB1002802D06D1CF1E7E4
:10019000284630BD421C10F8011B0029FBD1801AF3
:1001A000704700000FB400B58DB010A909900B90F6
:1001B00000914FF0FF300A9000200C900548069007
:1001C000054807906A4609A80F9900F055F90DB047
:1001D0005DF814FB95040008B30400082DE9FF5FE7
:1001E0001D464FF0FF3BD5E9014691465F464FF073
:1001F0000008A9697F1C01988847296A82468847B8
:100200000028F6D1BAF1FF3F0CD024F4C064002ED0
:1002100019DD600614D5BAF12B0F09D0BAF12D0FF4
:100220000ED103E0584604B0BDE8F09F44F480646A
:10023000A9697F1C01988847761E8246002E02DD40
:10024000BAF1300F03D0B9F1000F26D032E0A9691E
:10025000761E44F400747F1C019888478246002E65
:1002600005DDBAF1780F06D0BAF1580F03D0B9F115
:10027000000F10D01EE0B9F1000F02D0B9F1100F3D
:1002800018D1A969761E24F400747F1C0198884750
:100290008246102002E0082000E00A20814609E0A2
:1002A00008FB0908A969761E44F400747F1C0198B4
:1002B00088478246002E05DD4946504600F0C7F8C3
:1002C0000028EDDAE96901988847A00502D46FF0AB
:1002D0000100A8E7E00725D1600613D5600502D527
:1002E000C8F1000000E0404629680A1D2A6009683C
:1002F000220501D5087015E0220701D5088011E01C
:1003000008600FE02868011D29600068210502D5FA
:1003100080F8008006E0210702D5A0F8008001E007
:10032000C0F8008038467EE72DE9FF5FD2E901A7DB
:100330004FF00008916999461446DDF838B04646FA
:1003400001988847054659EA0B0005D009E0A169E4
:10035000761C019888470546216A28468847002868
:10036000F5D1681C03D05FEACA7005D015E04FF0E4
:10037000FF3004B0BDE8F09F2068011D2160D0F877
:1003800000800AE05FEACA7001D108F8015BA16948
:10039000761C7F1E019888470546002F1ADD681CD1
:1003A00018D0B9F1000F0DD0E81705EBD06042115D
:1003B00020F01F0059F822102A1A01209040014213
:1003C000E0D107E0BBF1000FDCD1216A2846884765
:1003D0000028D7D0E16901988847BBF1000F07D109
:1003E000002E05DD5FEACA7002D1002188F80010F6
:1003F000A068B84203DDBBF1000F03D017B16FF066
:100400000100B6E73046B4E770B5064603F082F95E
:10041000046805460A220021304600F05BF82C6093
:1004200070BD30B50B46014600202022012409E0B2
:1004300021FA02F59D4205D303FA02F5491B04FA9D
:1004400002F52844151EA2F10102F1DC30BD3A2864
:1004500000D2303820F02002412A01D3A2F1370027
:10046000884201D34FF0FF3070470000026811440A
:100470001378016018467047D160044951610449FE
:10048000116200211161114600F07CB86D04000872
:1004900071050008426842B1016811F8013B23B1BF
:1004A000521EC0E90012184670470121C160881E23
:1004B000704742685AB1C368016843B983688B4288
:1004C00005D0491E521CC0E90012002070474FF0B1
:1004D000FF3070472DE9F04791460F4680460446AD
:1004E000002614F8015B2DB100F03EF80068405D75
:1004F000C007F6D12B2D02D02D2D18D0641E4A46F0
:100500003946204600F0D6F927B13968A14201D119
:10051000C7F8008071054FF002040BD54042002857
:1005200003DD03F0F7F80460A007BDE8F08746F4A8
:100530008066E4E70028F8DA03F0ECF804606FF076
:100540000040F2E7064C074D06E0E06840F001038A
:1005500094E8070098471034AC42F6D3FFF7CAFD81
:100560007C5100089C51000800487047A84E0008C4
:1005700010B50446FFF7F8FF0068005D00F00100C9
:1005800010BD00002DE9F34F8BB04FF0000801F1D2
:100590000C000C464FF0010B46460DF1080A019085
:1005A0006269012101989047051E2DD0252D2CD080
:1005B000216A8847C0B16269012101989047216A88
:1005C00088470028F7D1411E62690198904700E0F2
:1005D000761CA1690B988847216A88470028F7D1C3
:1005E000E1690B988847DBE7A1690B9888470746C4
:1005F000A84201D1761CD3E7E1690B9888477F1C9C
:1006000002D1B8F1000F6FD047E1002762693D4683
:100610003946019890472A2804D16269012101983E
:1006200090470125DFF8889262690121019890477F
:10063000A0F130010A290AD24F45E5DC07EB87011A
:1006400000EB4107303FDFD445F01005ECE7E90649
:1006500001D46FF000476C280AD04C2814D06828C9
:1006600015D06A280DD074281CD07A281AD01DE025
:1006700062690121019890476C2802D045F0040579
:1006800014E045F002050DE045F020050AE062693E
:10069000012101989047682802D045F0080505E03F
:1006A00045F400656269012101989047C4E901574A
:1006B00065283DD019DC58287AD00CDC452837D085
:1006C00004DC252826D0412831D131E046282FD01E
:1006D00047282CD12CE05B2877D0612828D06328CC
:1006E0007CD0642823D15AE0D1E06F2848D008DCC0
:1006F00066281DD067281BD0692821D06E2816D106
:1007000027E0702845D0732868D0752847D078280E
:100710000DD14DE0A1690B988847054625283FF487
:1007200069AFE1690B9888476D1C3FF46AAFB4E08C
:1007300023466A466FF001000B99AFF300809FE0FB
:1007400045F040006060A80723464FF0000236D411
:100750003EE0E8077FF447AF2068011D2160006894
:10076000290501D506701BE7290701D5068017E783
:10077000A90703D5F117C0E9006111E706600FE78B
:1007800045F040006060A80723464FF0080216D4E9
:100790001EE040F60E0125EA0100606016E045F01B
:1007A00040006060A80723464FF00A0207D40FE01C
:1007B00045F040006060A80708D5234610226FF07E
:1007C00001000B99AFF300805AE007E023461022A6
:1007D0006FF001000B99FFF701FD51E04FF00009A8
:1007E0004F464B46632802D05B2807D041E0207972
:1007F000C00601D40120A06001273AE0626901210E
:10080000019890475E2805D14FF001096269494679
:1008100001989047216939B900210A46534643F8A7
:100820002120491C0829FADBB0B3216969B9C11735
:1008300000EBD16253110AEB830122F01F02821AEE
:1008400001200B68904003430B606269012101980D
:1008500090475D28E8D1B9F1000F09D0002051463A
:1008600051F82020D24341F82020401C0828F7DB13
:1008700002AB224600976FF001000B99FFF754FD81
:1008800000280CDA401C08D1BBF1000F05D04FF056
:10089000FF300DB0BDE8F08FFFE74046F9E7E9070C
:1008A00001D108F1010806444FF0000B78E6000082
:1008B000CCCCCC0C2DE9F05F8246007800271546A1
:1008C0008B460AF10104B946302801D09DB113E0EE
:1008D00014F8010B0127782803D0582801D045B11E
:1008E0000AE00DB1102D07D10027102514F8010BD7
:1008F00002E0082500E00A250026B0460EE005FBD0
:10090000080005FB06F1012701EB10461FFA80F8ED
:10091000B6F5803F00D3B94614F8010B2946FFF71E
:1009200096FD0028EBDABBF1000F05D00FB1641E75
:1009300000E05446CBF80040B9F1000F06D002F0B9
:10094000E9FE02210160C81EBDE8F09F48EA0640AA
:10095000FAE770B58C1810F8015B15F0070301D1A8
:1009600010F8013B2A1106D110F8012B03E010F812
:10097000016B01F8016B5B1EF9D12B0705D4002335
:10098000521E0DD401F8013BFAE710F8013BCB1AD7
:10099000921C03E013F8015B01F8015B521EF9D5CC
:1009A000A142D8D3002070BD38B50AA0012100684B
:1009B0000090684600F01EF86C460121601C00F0B3
:1009C00019F80121A01C00F015F80121E01C00F02D
:1009D00011F838BD0101071008B54FF4FA7102464D
:1009E000009102234721024800F05CFA08BD000094
:1009F0005408002008B54FF4FA7200920B460246E4
:100A00004621024800F076FB08BD00005408002093
:100A1000FEE7704772B6FEE710B590F8211000228D
:100A2000022905D00421816380F82020012010BD17
:100A300001680B6823F00E030B6001680B6823F05C
:100A400001030B6090F84030C46B012101FA03F3FD
:100A5000636080F8211080F82020104610BD00004F
:100A600010B590F821100024022903D004218163DD
:100A700001243DE001680A6822F00E020A60016864
:100A80000A6822F001020A601A4A0168914201D103
:100A9000012121E0174A1432914201D110211BE0BB
:100AA000144A2832914201D1891515E0114A3C328D
:100AB000914201D189140FE00E4A5032914202D185
:100AC0004FF4803108E00B4A6432914202D14FF476
:100AD000801101E04FF08071064A083A516001210F
:100AE00080F82110002180F82010416B01B1884767
:100AF000204610BD0800024070B5044600F008F919
:100B00000546601C02D004480078044400F000F957
:100B1000401BA042FAD370BD000000202DE9F84F21
:100B2000DFF8B8910024A9F1040B23460F2709F13F
:100B3000040AABF1040EC9E00125A5402A40AA42EF
:100B40007DD1674ED1F804C0ACEB0608B44532D075
:100B500014DCBCF1030F3AD009DCBCF1000F2AD041
:100B6000BCF1010F1CD0BCF1020F31D11DE0BCF172
:100B7000110F17D0BCF1120F2AD119E0B8F5881F58
:100B800019D006DCB8F5803F15D0B8F5801F1FD10D
:100B900011E0B8F5001F0ED0B8F5041F18D10AE017
:100BA000CB6815E0CB681B1D12E0CB6808330FE063
:100BB000CB680C330CE08B682BB1012B4FF0080392
:100BC00003D0456104E0042302E0056100E0002356
:100BD000FF2A01D8064601E000F104064FEA840529
:100BE00001D9A5F12005D6F8008007FA05FC28EA0E
:100BF0000C0803FA05F548EA0508C6F800804D68B8
:100C0000ED0062D5374DAE6946F00106AE61AD69C3
:100C100024F0030605F001050095334D06EB050CA5
:100C2000DCF80850A607360F07FA06F825EA08058B
:100C3000DFF8B880404503D14FF0000817E044E0EA
:100C4000DFF8AC80404502D14FF001080FE0DFF83B
:100C5000A480404502D14FF0020808E0DFF89880F8
:100C6000404502D14FF0030801E04FF0040808FAB4
:100C700006F848EA0508CCF808804D68D9F8006005
:100C8000ED024D4601D5164300E096432E604D68B7
:100C9000DAF80060AD02554601D5164300E09643F0
:100CA0002E604D68DBF80060AD035D4601D516434C
:100CB00000E096432E604D68DEF80060ED03754657
:100CC00001D5164300E096432E60641C0D682A4649
:100CD000E5407FF431AFBDE8F88F00000804014023
:100CE0000000111000100240000001400008014007
:100CF000000C0140001001400014014080680840D1
:100D000000D0012070470AB1016170470904FBE778
:100D100001488068704700000000002070B50400A2
:100D200025D094F83D00002520B984F83C50204699
:100D300000F076FA242084F83D002068016821F054
:100D4000010101602068016841F4004101602068F0
:100D5000016821F40041016000F0C8FB4D4A616860
:100D6000914201D84C4900E04C49884201D201200F
:100D700070BD4B492368B0FBF1F15E6826F03F0679
:100D80000E435E606368934206D94FF496735943ED
:100D90004FF47A73B1FBF3F12368491C1E6A26F005
:100DA0003F06314319626168914210D84900401EE4
:100DB000B0FBF1F2521CC2F30B02042A01D2042050
:100DC00022E0B0FBF1F0401CC0F30B001CE0A26875
:100DD000F2B301EBC10303EB0116431EB3FBF6F3C1
:100DE0005B1C43F480431B0549D092B301EBC10265
:100DF00002EB0111401EB0FBF1F0401CC0F30B00F0
:100E000040F4804040F400402168CA694CF6FF730A
:100E10009A431043C861D4E907100143206802686F
:100E200022F0C00211430160D4E9030101432068AC
:100E3000826848F2FF339A4311438160D4E9050187
:100E400008432168CA6822F0FF021043C86001E02D
:100E50000EE016E02068016841F0010101602564A0
:100E6000202084F83D00256384F83E50002070BDAA
:100E700001EB4106431EB3FBF6F35B1CB3E7012015
:100E8000C2E701EB4101401EB0FBF1F0401CC0F392
:100E90000B00B7E7A086010080841E0000093D001A
:100EA00040420F002DE9F84F0025DDF828909846C4
:100EB00017468A4604460095FFF72AFF064694F82F
:100EC0003D0020287AD11923012286492046009628
:100ED00001F0C6FC0028F5D194F83C0001286DD043
:100EE000012084F83C0020680168C90703D101682B
:100EF00041F0010101602068016821F40061016096
:100F0000222084F83D00102084F83E0025646762AA
:100F1000A4F82A80608D20857348E06233464A46F3
:100F20005146204601F0ACFB00287CD1208DDFF833
:100F3000BC81202768B1012814D0022820680168EC
:100F40001ED041F480610160206841698069009091
:100F5000BBE02068416981690091016841F400713A
:100F60000160B2E02068016821F48061016072B61E
:100F70002068416981690091016841F400710AE0CB
:100F800041F40061016072B6206841698169009195
:100F9000016821F48061016062B696E0032865D89B
:100FA00001280CD002284B464FF000024146204653
:100FB00000960BD001F054FCA8BB0CE090E0324648
:100FC0004946204601F0F2FC68BB71E001F048FCA4
:100FD00048BB72B633E02068016821F4806101608B
:100FE00072B620680069616A0870606A401C6062BD
:100FF000208D401E2085608D401E60853C4846F255
:10100000A8110068B0FBF1F0C0EBC00000EB80005D
:101010000090401E009007D020684069C043400700
:101020000DD50098F5E727E044F8305F6773A573A6
:10103000206940F02000206162B625731CE0206822
:10104000016841F40071016020680069616A0870FC
:10105000606A401C6062218D491E2185618D491E98
:10106000618562B621680969017025E0324649460A
:10107000204601F09BFC10B10120BDE8F88F2068EC
:101080000069616A0870606A401C6062208D401EC1
:1010900081B22185608D401E608520684269D243FF
:1010A000520712D4032903D1016821F48061016041
:1010B00020680069616A0870606A401C6062208D67
:1010C000401E2085608D401E6085208D00287FF4A5
:1010D00065AF84F83D7084F83E5084F83C50CCE70E
:1010E0000220CAE7020010000000FFFF0400010018
:1010F0000C0000202DE9F84F1F4690468A46044612
:10110000DDF82890FFF704FE054694F83D002028FE
:101110007FD11923012240492046009501F0A0FB10
:10112000002876D194F83C00012872D0012084F880
:101130003C0020680168C90703D1016841F0010142
:1011400001602068016821F400610160212084F8B9
:101150003D00102084F83E0000262664C4F8248058
:101160006785608D20852D48E0622B464A465146B2
:10117000204601F0FBFA90B920684169806900902F
:1011800036E02A464946204601F048FC50B1206C22
:10119000042804D12068016841F400710160012035
:1011A000BDE8F88F606A216800780861606A401CB9
:1011B0006062618D491E6185218D491E89B221853C
:1011C00022685369DB435B070BD451B1007810618F
:1011D000606A401C6062608D401E6085208D401EEC
:1011E00020852A464946204601F00EFB0028CED134
:1011F000208D0028C5D154F83D0B016841F40071E1
:101200000160202004F81E09E67766770020C7E712
:10121000FFE70220C4E70000020010000000FFFF0B
:1012200010B586B0002100910191029103910068F0
:101230001349884222D1134CA06940F00800A061F4
:10124000A069694600F0080004904FF440700090D7
:1012500012200190032003900B48FFF75FFC0B481E
:10126000416841F0E06141F002014160E06940F411
:101270000010E061E06900F40010049006B010BDB9
:101280000054004000100240000C014000000140EA
:101290000248816802781144816070470000002094
:1012A000074810B5016841F010010160032000F00B
:1012B00075F80F2000F006F800F024F8002010BDAB
:1012C0000020024070B50D4D04464FF47A71287825
:1012D000B1FBF0F00A490968B1FBF0F000F01BFC2B
:1012E00048B9102C07D200222146501E00F036F8D3
:1012F00000206C6070BD012070BD00000000002067
:101300000C0000200C4808B5816941F001018161A1
:10131000816901F001010091C16941F08051C16111
:10132000C06900F0805000900448416821F0E061FD
:1013300041F00071416008BD001002400000014012
:10134000002809DB00F01F020121914040098000C4
:1013500000F1E020C0F8001170470000F0B40E4B1F
:101360001B680C46C3F30223C3F10705042D00D903
:101370000425191D072901D2002300E0DB1E0126E8
:1013800006FA05F1491E214099409E40761E1640FE
:101390003143F0BC02F0AEB90CED00E0064900F0BC
:1013A000070208684FF6FF03184040EA0220034A8C
:1013B00010430860704700000CED00E00000FA05E3
:1013C0002DE9F0470F46050061D0434E306800F02C
:1013D0000700B84209D2306820F007003843306077
:1013E000306800F00700B84251D128683B4C8107B3
:1013F00012D5400703D5606840F4E060606028784B
:10140000000703D5606840F4605060606068A968B8
:1014100020F0F000084360602878C00728D0686892
:10142000012810D02168022810D0890700292EDA5F
:10143000616821F0030101436160FFF769FC8046A8
:1014400041F288390DE021688903EFE78901EDE772
:10145000FFF75EFCA0EB0801494502D90320BDE877
:10146000F0876068696800F00C00B0EB810FEFD185
:10147000306800F00700B8420BD9306820F0070050
:1014800038433060306800F00700B84201D00120D6
:10149000E5E72878400705D56068E96820F4E06052
:1014A000084360602878000706D56068296920F441
:1014B000605040EAC100606000F038F86168084A96
:1014C000C1F30311515CC840064908600648006832
:1014D000FFF7F8FE0020C2E70020024000100240A3
:1014E000F24D00080C0000200400002004480549CB
:1014F00000684968044AC1F30221515CC840704742
:101500000C00002000100240024E0008044805496B
:1015100000684968044AC1F3C221515CC840704761
:101520000C00002000100240024E00080E4A5168D4
:101530000E4801F00C03042B11D0082B0FD10C48DE
:10154000C1F38343C903C05C0AD55168084AC1F39B
:101550004041921E515C054A5043B0FBF1F0704788
:1015600004494843704700000010024000127A000E
:10157000E24D000800093D002DE9F84F040070D04D
:101580002078C04DC00749D06868C0F381000128A9
:1015900007D06868C0F38100022809D16868C003D9
:1015A00006D52868800339D560680028E7D035E083
:1015B0006068B0F5803F0BD010B1B0F5A02F11D00E
:1015C000286820F480302860286820F4802002E019
:1015D000286840F480302860606890B1FFF798FB7D
:1015E00006460AE0286840F480202860F0E700BF43
:1015F000FFF78EFB801B642873D828688003F7D51B
:101600000CE0FFF785FB064605E000BFFFF780FB17
:10161000801B6428F0D828688003F7D420789A4E7D
:1016200080074FF001094FF0000839D5686810F0C5
:101630000C0F07D06868C0F38100022809D16868E0
:10164000C00306D42868800714D52069012808D172
:1016500010E02069B0B1C6F80090FFF759FB0746CB
:1016600005E00AE1FFF754FBC01B0228C4D8286834
:101670008007F7D52868616920F0F80040EAC100CA
:1016800028600DE0C6F80080FFF742FB074604E043
:10169000FFF73EFBC01B022823D828688007F7D439
:1016A000207800072CD57948A169D9B1C0F80090FD
:1016B000FFF72EFB074604E0FFF72AFBC01B0228BA
:1016C0000FD8686A8007F7D571484FF4FA5100685F
:1016D000B0FBF1F0009000BF0098411E0091FAD2DB
:1016E0000EE080E0C0F80080FFF712FB074604E040
:1016F000FFF70EFBC01B022875D8686A8007F7D475
:101700002078400760D5E8690027C00008D4E86960
:1017100040F08050E861E869012700F080500090B7
:101720005C480168C90513D40168834641F480719F
:101730000160FFF7EDFA824606E000BFFFF7E8FA26
:10174000A0EB0A0064284ED8DBF80000C005F5D5F0
:10175000E06801280AD008B1052813D0286A20F0D3
:1017600001002862286A20F0040002E0286A40F0A4
:1017700001002862E06841F2883B98B1FFF7C8FA9F
:1017800082460BE0286A40F004002862EEE700BFC2
:10179000FFF7BEFAA0EB0A0159455AD8286A80071C
:1017A000F6D50CE0FFF7B4FA824605E0FFF7B0FA91
:1017B000A0EB0A0159454CD8286A8007F6D41FB11E
:1017C000E86920F08050E861E06988B36968C1F396
:1017D0008101022944D00228C6F8608004D0FFF7B6
:1017E00097FA044638E034E0FFF792FA074604E03F
:1017F000FFF78EFAC01B02282BD828688001F7D487
:10180000206AB0F5803F05D16868A16820F40030F7
:1018100008436860D4E908010843696821F4741139
:1018200008436860C6F86090FFF772FA044606E065
:1018300025E000BFFFF76CFA001B022809D82868D2
:101840008001F7D51BE000BFFFF762FA001B0228FA
:1018500002D90320BDE8F88F28688001F4D40EE097
:101860000128F7D06868226A00F48031914204D1DF
:10187000616A00F47010884201D00120EAE700207C
:10188000E8E70000001002400000424280044242AB
:101890000C0000200070004070B5040009D0606AA0
:1018A000002540B125616561A56294F8510040B101
:1018B0000CE0012070BD6068B0F5827FF4D0E56176
:1018C000F2E784F85050204600F040F8022084F8F7
:1018D00051002068016821F040010160A088218941
:1018E00000F4827001F404410843A18901F400610D
:1018F0000843217C01F002010843217D01F0010130
:101900000843218B01F400710843217F01F0380165
:10191000084394F8201001F080010843218D01F460
:101920000051084321680860A069042101EA1040C1
:10193000216848602068C16921F40061C161656562
:10194000012084F85100002070BD000000B585B072
:101950000021009101910291039100680F49884292
:101960001AD10F48816941F480518161816901F484
:1019700080510491816941F0040181618069694667
:1019800000F004000490A0200090022001900320A9
:1019900003900448FFF7C2F805B000BD00300140D5
:1019A00000100240000801402DE9F84F044690F86D
:1019B00050000026984615468A4601280CD001277B
:1019C00084F85070FFF7A4F9814694F85100B346AB
:1019D000012804D002269AE00220BDE8F88FBAF16F
:1019E000000F6FD0002D6DD0032084F85100C4F893
:1019F00054B0C4F830A0A586E586C4F838B0A4F881
:101A00003CB0A4F83EB0C4F844B0C4F840B0A068FC
:101A1000B0F5004F09D12068016821F04001016054
:101A20002068016841F4804101602068016849062E
:101A300003D4016841F040010160E068B0F5006F37
:101A4000606803D058B3012D29D049E008B1012DB9
:101A50001FD1206B21680088C86006E0206881687B
:101A6000890709D5216B0988C160206B801C206320
:101A7000E08E401EE0860CE0FFF74AF9A0EB09017A
:101A8000414503D3B8F1FF3F03D006E0B8F1000FA2
:101A900003D0E08E0028E1D125E0032635E0206B5D
:101AA00021680078087306E02068816889070AD5F4
:101AB000216B09780173206B401C2063E08E401E6F
:101AC000E0860DE01FE0FFF723F9A0EB0901414597
:101AD00003D3B8F1FF3F03D0DFE7B8F1000FDCD04C
:101AE000E08E0028E0D14A464146204601F0E7FA60
:101AF00008B120206065A06818B92068C1688068B6
:101B00000090606D08B1012601E084F8517084F8FE
:101B100050B0304661E710B5401EB0F1807F01D370
:101B2000012010BD4FF0E02460610F21601701F02B
:101B3000E1FD0020A06107202061002010BD70475A
:101B40007047000070B590F83C20012A26D001248F
:101B500080F83C40022280F83D2003685A689D6866
:101B600022F070060A6832435A600D4B02689A42AE
:101B700008D0B2F1804F05D00A4B9A4202D00A4BEE
:101B80009A4204D1496825F080031943916080F896
:101B90003D40002180F83C10084670BD022070BD19
:101BA000002C0140000400400008004010B5040073
:101BB00003D094F83D0010B107E0012010BD0020D3
:101BC00084F83C00204600F01FF8022084F83D0015
:101BD000211D206801F01AFB012084F8460084F8DA
:101BE0003E0084F83F0084F8400084F8410084F807
:101BF000420084F8430084F8440084F8450084F8E7
:101C00003D00002010BD000008B501681048B1F18A
:101C1000804F0BD00F4A914207D1C16941F00201B8
:101C2000C161C06900F00200009008BDC16941F0C7
:101C30000101C161C069002200F00100009011465D
:101C40001C20FFF78BFBBDE808401C20FFF778BB8A
:101C5000001002400004004090F83D10012901D01E
:101C600001207047022180F83D100168CA6842F0E7
:101C70000102CA6000680B49884208D0B0F1804F69
:101C800005D00949884202D00849884204D18168B8
:101C900001F00701062903D0016841F0010101604C
:101CA00000207047002C0140000400400008004064
:101CB00070B5044690F83C000025012817D0012695
:101CC00084F83C60022084F83D002068826822F09D
:101CD000770222F47F4282600868502838D00DDCF9
:101CE00020284FD005DC90B3102811D14AE0022003
:101CF00070BD302846D040280AD13BE060282FD064
:101D000070280DD0B0F5805F03D0B0F5005F12D021
:101D1000012584F83D60002084F83C00284670BD11
:101D2000CB68D1E90121206801F0B3FA206881680D
:101D300041F0770109E0CB68D1E90121206801F089
:101D4000A8FA2068816841F480418160E1E719E0E8
:101D5000CA684968206801F051FB5021206806E0FC
:101D6000CA684968206801F05AFB6021206801F0C8
:101D70009AFACEE7CA684968206801F03FFB402123
:101D80002068F4E7226801461046F0E7704770B516
:101D90000446006801694FF00005C943890715D45E
:101DA000C168C943890711D4E91E01610120207768
:101DB000206880698007204602D0FFF7E7FF04E033
:101DC00000F0C8F8204600F05AF92577206801692C
:101DD000C943490717D4C168C943490713D46FF0F1
:101DE00004010161022020772068806910F4407F9F
:101DF000204602D0FFF7CAFF04E000F0ABF820460F
:101E000000F03DF9257720680169C943090716D418
:101E1000C168C943090712D46FF0080101610420A9
:101E200020772068C0698007204602D0FFF7AEFF08
:101E300004E000F08FF8204600F021F925772068B3
:101E40000169C943C90617D4C168C943C90613D477
:101E50006FF010010161082020772068C06910F43C
:101E6000407F204602D0FFF791FF04E000F072F8B7
:101E7000204600F004F9257720680169C943C907A5
:101E800008D1C168C943C90704D1891E0161204630
:101E900000F044F920680169C943090609D4C16802
:101EA000C943090605D46FF0800101612046FFF7A0
:101EB00046FE20680169C943490609D4C168C9437F
:101EC000490605D46FF040010161204600F048F951
:101ED00020680169C94389060BD4C168C9438906D2
:101EE00007D46FF0200101612046BDE87040FFF784
:101EF00027BE70BD00B585B000210091019102910F
:101F0000039100680F4988421AD10F48816941F056
:101F1000080181618069694600F008000490312061
:101F200000900220019003900848FEF7F7FD084852
:101F3000416821F4406141F0E06141F40061416099
:101F400005B000BD0004004000100240000C01403C
:101F500000000140704770B5044690F83C00002630
:101F60000D4601280FD0012084F83C006AB1042AF4
:101F70001DD0082A2FD00C2A3FD00126002084F83B
:101F80003C00304670BD022070BD206801F094F91D
:101F90002068816941F0080181612068816921F030
:101FA00004018161206881692A69114311E0206878
:101FB00001F0AAF92068816941F40061816120681B
:101FC000816921F480618161206881692A6941EA1F
:101FD00002218161D2E7206801F0C2F92068C1695D
:101FE00041F00801C1612068C16921F00401C161AB
:101FF0002068C1692A69114311E0206801F0DCF909
:102000002068C16941F40061C1612068C16921F49F
:102010008061C1612068C1692A6941EA0221C16108
:10202000ACE710B5040003D094F83D0010B107E010
:10203000012010BD002084F83C00204600F01EF86E
:10204000022084F83D00211D206801F0DFF8012006
:1020500084F8460084F83E0084F83F0084F840008D
:1020600084F8410084F8420084F8430084F8440076
:1020700084F8450084F83D00002010BD704770478B
:1020800010B50446022249B104290ED0082913D004
:1020900094F84100012816D0012010BD94F83E00AC
:1020A0000128F9D184F83E200FE094F83F00012880
:1020B000F2D184F83F2008E094F840000128EBD1E9
:1020C00084F8402001E084F841200122206801F0DA
:1020D000D3F80F492068884203D1426C42F4004291
:1020E00042642068884208D0B0F1804F05D0094989
:1020F000884202D00849884204D1816801F0070172
:10210000062903D0016841F001010160002010BDE3
:10211000002C014000040040000800400E49006807
:102120000968884216D10D498888401C82B2642013
:10213000B2FBF0F300FB13238A8001201BB9C88097
:10214000088148708870B2F5FA7F02D308700022C7
:102150008A80C87070470000000900203E080020F7
:102160007047704770470000F8B50168044608687A
:10217000CA684B6910F00F0F4FF0000559D003F0FB
:10218000010602F49077374365D0C10705D0D10529
:1021900003D5616C41F001016164410705D5D907A0
:1021A00003D0616C41F002016164810705D5D90754
:1021B00003D0616C41F004016164010707D502F0AE
:1021C0002001314303D0616C41F008016164616C0E
:1021D00000293AD0800604D5900602D5204601F0A9
:1021E0005FF920684069616CC0F38010090700D472
:1021F00060B3204601F02DF920684069400621D5E2
:102200002068143050E8001F21F0400140E800121F
:10221000002AF5D1E06BA8B16D494163E06BFEF790
:102220001FFC002811D0E06B416B01B0BDE8F0400D
:10223000084783060FD593060DD52046BDE8F84024
:1022400001F02EB92046FFF78DFFF8BD2046FFF7BD
:1022500089FF6564F8BD266B2023012E7CD1C6065C
:102260007AD5D60678D508684868009048694FF056
:102270000206400640D5E16B086840680004000C87
:10228000E8D0A28D8242E5D9E085886920282DD04A
:1022900020680C3050E8001F21F4807140E80012E3
:1022A000002AF5D12068143050E8001F21F0010108
:1022B00040E80012002AF5D12068143050E8001FD1
:1022C00021F0400140E80012002AF5D184F84230A4
:1022D000256320680C3050E8001F21F0100140E811
:1022E0000012002AF5D1E06BFEF796FB6663A08D25
:1022F000E18D401A81B22AE0A08DE18D401A81B2B1
:10230000E08D0028A6D00029A4D022680C3252E823
:10231000000F20F4907042E80007002FF5D12068EC
:10232000143050E8002F22F0010240E80027002F6F
:10233000F5D184F84230256320680C3050E8002F36
:1023400022F0100240E80023002BF5D166632046FE
:10235000FFF707FFF8BDFFE705062BD5150629D5C2
:1023600094F841002128F5D1A068B0F5805F01D133
:102370002069B0B1206A411C216221680078486060
:10238000E08C401E0004000CE084E3D12068C168AA
:1023900021F08001C1602068C16841F04001C16046
:1023A000D8E7206A0088C0F308004860206A801CD3
:1023B0002062E5E74006CDD55006CBD5CA68204659
:1023C00022F04002CA6084F8413000F03FF9C1E7D2
:1023D0004334000870B5040004D094F8410000258F
:1023E00010B106E0012070BD84F84050204600F096
:1023F00023F8242084F841002068C16821F40051AA
:10240000C160204601F0AEF82068016921F49041D6
:1024100001612068416921F02A0141612068C16899
:1024200041F40051C1606564202084F8410084F8C3
:1024300042006563002070BD70B586B00024009432
:102440000194029403942B4E03682B49022003222B
:102450002A4DB34221D18B6943F480438B618B6950
:1024600003F4804304938B6943F004038B6189690F
:10247000039201F0040104910102CDE900106946C4
:102480002846FEF74BFB2815CDE90004694628468F
:102490000294FEF743FB06B070BD194EB342FAD169
:1024A000CB6943F40033CB61CB6903F4003304936D
:1024B0008B6943F004038B618969039201F0040185
:1024C00004910421CDE9001069462846FEF726FB59
:1024D0000820CDE90004694628460294FEF71EFB59
:1024E000002211462620FEF739FF2620FEF728FF9E
:1024F000D1E7000000380140001002400008014010
:10250000004400402DE9F843044690F84200994603
:1025100016460D46202802D00220BDE8F883ADB152
:10252000A6B100206064222184F842102063FEF7E7
:10253000EFFBA6858046E685A0684FF48057B84239
:1025400001D1206920B12E46002526E00120E4E7D4
:10255000002622E04346002220212046CDF80090AC
:1025600001F05CF808B10320D7E726B1A068B842B3
:102570001BD038B108E020684068C0F3080025F897
:10258000020B07E0206980B12068406800F07F00FE
:1025900006F8010BE08D401EE085E08D0028D9D1C2
:1025A000202084F842000020B7E720684068EFE769
:1025B00070472DE9F843044690F841001F4616463F
:1025C0000D46202802D00220BDE8F8837DB176B107
:1025D00000206064212084F84100FEF799FBA68466
:1025E0008046E684A068B0F5805F02D003E0012059
:1025F000EAE7206910B12E4600250EE000260CE027
:102600008021204601F00AF8A0B9AEB116F8010BFE
:1026100021684860E08C401EE084E08C43464FF027
:10262000000200970028EBD14FF04001204600F057
:10263000F5FF30B10320C7E735F8020BC0F30800FF
:10264000E6E7202084F841000020BDE77047FEE760
:1026500001684A69D24352050FD46FF480624A611F
:10266000002140F8301F202242738173026942F03A
:1026700004020261017301207047002070470000CE
:102680002DE9F84F0446C06A1E4693460D46216860
:102690000A6842F480620A60082807D0012805D041
:1026A00010F5803F02D0206B112804D1206801680A
:1026B00041F4807101604FF001195B4600224946E8
:1026C0002046009600F0CCF84FF4007840B1206826
:1026D0000068C00501D5C4F840800320BDE8F88F2C
:1026E0002069DFF884A0B0F5804F0FD00620216864
:1026F00000EAD51747F0F000086133465A460AF160
:102700000601204600F0F4F858BB03E0E8B240F0C0
:1027100001001CE02168E8B2086133465A46514680
:10272000204600F0E5F8E0B9206841698169009130
:10273000016841F4807101605B46002249462046F1
:10274000009600F08DF80028C1D147F0F100216813
:10275000086133465A465146204600F0C9F8002821
:10276000BCD00120BAE7000002000100F8B5044621
:10277000C06A1E460D461746082807D0012805D016
:1027800010F5803F02D0206B122804D12068016828
:1027900041F480710160134600224FF00111204680
:1027A000009600F05DF840B120680068C00502D5D1
:1027B0004FF4007020640320F8BD2069B0F5804F0D
:1027C0000ED00620216800EAD51040F0F000086124
:1027D00033463A460B49204600F08AF878B902E0C1
:1027E00005F0FE0000E0E8B22168086105493346C3
:1027F0003A46891F204600F07BF80028DCD00120F3
:10280000F8BD00000800010070B516460D460446EC
:102810001EE02046FFF71CFF08B1012070BD681CB8
:1028200016D0FEF775FA801BA84200D885B920683B
:102830004069C04340070BD5002044F8300F2021E9
:102840006173A073216941F0200121612073E4E7E5
:1028500020684069C0434007DBD4002070BD000001
:102860002DE9F047984617460D460446C1F3074642
:10287000DDF820902AE000BFB8F1FF3F26D0FEF738
:1028800047FAA0EB0901414502D8B8F1000F1DD16C
:102890002068012E16D0806925EA00000004000C93
:1028A00012D00020B84211D1002044F8300F20216E
:1028B0006173A073216941F020012161207301201F
:1028C000BDE8F0874069E7E70120EBE72068012ECB
:1028D0000AD0806925EA00000004000C06D0002020
:1028E000B842C9D00020EBE74069F3E70120F7E7E1
:1028F0002DE9F047984616460D4604464FF000096C
:102900004FF0200AC1F3074723E020684069C04325
:10291000400515D42068016841F400710160216808
:102920006FF480604861C4F8309084F83DA084F86A
:102930003E90216C41F00401216484F83C9021E038
:10294000701C06D0FEF7E4F9A0EB0800B04203D8F3
:1029500016B1012F1FD021E02068012F15D080690A
:1029600025EA00000004000C18D000BF44F8309F96
:1029700084F80DA084F80E90216941F020012161B6
:1029800084F80C900120BDE8F087406925EA00003A
:102990000004000CEAD12068406901E020688069E9
:1029A00025EA00000004000CAFD1ECE72DE9F0416E
:1029B000002590460E460446202728E04069C04383
:1029C000C0060CD454F8301B6FF01000486144F876
:1029D00010596777A577206A2062257714E0FEF703
:1029E00097F9A0EB0800B04200D886B9206840698A
:1029F000C04340060BD544F8305F6773A573206968
:102A000040F02000206125730120BDE8F08120689E
:102A10004169C9434906D1D40020F6E770B516468E
:102A20000D4604461EE02046FFF712FE08B10120C5
:102A300070BD681C16D0FEF76BF9801BA84200D849
:102A400085B920684069C04300060BD5002044F8D2
:102A5000300F20216173A073216941F020012161B1
:102A60002073E4E720684069C0430006DBD40020FF
:102A700070BD2DE9FE430600DDE90A75DDF8308002
:102A80000ED06AB167B15DB161B15BB102A8CDE9A9
:102A90000005304601F062FB0446012804D017E02F
:102AA000052415E0062413E00298305C01F012FBC7
:102AB000012805D10299491C02912968891E2960C3
:102AC0000299B8F1000F3144396001D088F8000054
:102AD0002046BDE8FE83FEB508AF97E870008DE89C
:102AE0007000FFF7C6FFFEBDF8B506004FF000000E
:102AF0000D4600900DD075B10A466946304601F08A
:102B0000CEFF2A466946304601F084FD28B10124F3
:102B10000BE0052415E0062413E02A4669463046FA
:102B200001F0B2FD044601280BD10098A84208D25A
:102B30002A466946304601F0B2FF0098A84200D00C
:102B400002242046F8BD00002DE9F04786B000269B
:102B500035480096019602960396816941F010016E
:102B60008161816901F010010491816941F02001C6
:102B70008161816901F020010491816941F00401C2
:102B80008161816901F004010491816941F00801CA
:102B900081618069012200F00800DFF89080540311
:102BA000049021464046FEF7AEF8DFF884900122FB
:102BB00040F602414846FEF7A6F800224FF4704165
:102BC0004846FEF7A0F8DFF86CA0671100223946EE
:102BD0005046FEF798F80125CDE900450224CDE9DD
:102BE000025469464046FDF799FFCDE9004502943D
:102BF000694648460394FDF791FF4FF47C40CDE9C8
:102C000000050320CDE9024069464846FDF786FFEE
:102C1000CDE90264CDE9007569465046FDF77EFFB7
:102C200006B0BDE8F087000000100240001001402F
:102C3000000C0140000801400D4810B50B4901602F
:102C40000C49416000214FF480428160C0E90312C9
:102C500041618161C1610162FEF760F8002803D023
:102C6000BDE81040FDF7D6BE10BD00000054004086
:102C700054080020A0860100104810B50E490160DC
:102C80004FF482714160002102228160C0E9031289
:102C900001224261520282611022C0E90721416291
:102CA00081620A21C162FEF7F7FD002803D0BDE86A
:102CB0001040FDF7AFBE10BD00300140A808002055
:102CC00010B586B000241648009401940294039431
:102CD00004944FF080410594016041F61F41C0E922
:102CE00001146421C0E903148461FEF75FFF08B199
:102CF000FDF790FE4FF48050009069460848FEF7BB
:102D0000D7FF08B1FDF786FE049404A90448059492
:102D1000FEF718FF002801D0FDF77CFE06B010BDBD
:102D20000009002010B58EB000240794089409947F
:102D30000A940B941C2168460C94FDF70EFA264861
:102D40002449016040F2CF21C0E90114FE21C0E90D
:102D500003148461FEF72AFF08B1FDF75BFE4FF410
:102D60008050079007A91C48FEF7A2FF08B1FDF7A5
:102D700051FE1948FFF755F908B1FDF74BFE0B94CA
:102D80000BA915480C94FEF7DDFE08B1FDF742FED5
:102D90006020CDE900040294002269460E480494A4
:102DA000FFF7D9F808B1FDF735FE042269460A4855
:102DB000FFF7D1F808B1FDF72DFE08226946064855
:102DC000FFF7C9F808B1FDF725FE0348FFF792F8B1
:102DD0000EB010BD00040040480900200C4810B59A
:102DE0000A4901604FF4E1314160002181600C2209
:102DF000C160C0E904128161C161FFF7EBFA0028EC
:102E000003D0BDE81040FDF705BE10BD00380140FD
:102E1000900900200C4810B50A4901604FF4E131D7
:102E20004160002181600C22C160C0E9041281610F
:102E3000C161FFF7CFFA002803D0BDE81040FDF7CD
:102E4000E9BD10BD00440040D8090020FEE7FEE7C0
:102E500010B511A0A2B0006820900020024669467B
:102E60000A54401CC0B28028FAD300240022032157
:102E700020A800F0F7F801228021684600F0F2F85F
:102E80009DF88000641C401CE4B28DF88000082C82
:102E9000ECD322B010BD0000B010000010B588B017
:102EA0001C2211A16846FDF73FF9164C01220221B0
:102EB0002046FDF728FF6420FDF71EFE00220221B8
:102EC0002046FDF720FF6420FDF716FE01220221B7
:102ED0002046FDF718FF00221C21684600F0C2F8CA
:102EE000FFF7B6FF08B010BDAE00104081CFA1C8FB
:102EF000A6A83FD300D580D9F1DA12DB4020028D9D
:102F000014A4A6AF000C0140074AB0311170102183
:102F100041EA1011517000F00F009070002203215F
:102F2000014800F09FB800001D0000202DE9FC477B
:102F300089460446002198466D460A2009E000BFF4
:102F4000B2FBF0F300FB1323B2FBF0F26B54491C0D
:102F5000C9B2092AF4D86A54491CCEB234E0761EAC
:102F6000F6B2A85D1030C7B2B8F1080F03D0B8F1BF
:102F7000100F29D10EE049462046FFF7C5FF14493E
:102F800007EB470001EB40000122062100F06AF840
:102F9000A41D18E049462046FFF7B6FF0D48012260
:102FA00000EB07170821384600F05CF809F1010032
:102FB000C1B22046FFF7A8FF07F10800012208214F
:102FC00000F050F80834E4B2002EC8D1BDE8FC8708
:102FD00020000020480200202DE9F04798461646C0
:102FE00089460446002533E020386D1CC7B2EDB297
:102FF000B8F1080F03D0B8F1100F29D10EE04946FF
:103000002046FFF781FF154907EB470001EB400021
:103010000122062100F026F8A41D18E049462046AA
:10302000FFF772FF0E48012200EB07100746082148
:1030300000F018F809F10100C1B22046FFF764FF63
:1030400007F108000122082100F00CF80834E4B26E
:10305000705D0028C8D1BDE8F08700002000002086
:10306000480200202DE9F041124C0F4680464FF4F3
:10307000806602B1012231462046FDF744FE4FF43E
:103080000065002229462046FDF73DFE4FF4FA7305
:103090003A4641460848FEF787FC01222946204669
:1030A000FDF731FE31462046BDE8F0410122FDF733
:1030B0002ABE0000000C0140A8080020704738B567
:1030C0000B46009204460022802100F009F80028F7
:1030D00004D0606D40F020006065032038BD000022
:1030E0002DE9F8431E46914688460446089DFDF7A3
:1030F0000FFE401B351AFDF70BFE074625480068FA
:10310000C0F3CB30684338E0701C37D0FDF700FEC9
:10311000C01BA84203D215B1009860B32CE0206810
:10312000416821F0E00141606068B0F5827F0BD119
:10313000A068B0F5004F02D0B0F5806F04D12068D0
:10314000016821F040010160A06AB0F5005F09D17B
:103150002068016821F4005101602068016841F491
:1031600000510160012084F85100002084F85000D3
:103170000320BDE8F8830025401E00902068816888
:1031800038EA010004D000214945BDD10020F0E714
:103190000121F9E70C0000207047FEF779B830B53F
:1031A0008FB028216846FCF7D8FF14210AA8FCF745
:1031B000D4FF01210804CDE9001000240294022567
:1031C0000491CDE907504FF4E01009906846FEF7EE
:1031D000D3F908B172B6FEE70F20CDE90A054FF426
:1031E0008060CDE90C4002210AA80E94FEF7E8F8B1
:1031F000002801D072B6FEE70FB030BD7047000066
:103200000148FEF7C4BD000000090020F0B50268C7
:10321000164B174C174D4FF08047984205D0B842D7
:1032200003D0A04201D0A84203D122F070064A6820
:103230003243984205D0B84203D0A04201D0A84200
:1032400003D122F44074CA6822434C6922F0800200
:10325000224302608A68C2620A688262984201D18F
:103260000969016301214161F0BD0000002C0140AA
:10327000000400400008004010B501F01F030121C8
:10328000046A99408C430462016A9A4011430162C6
:1032900010BD10B5846842EA032224F47F440A4337
:1032A0002243826010BD826822F070020A4342F01D
:1032B000070181607047000030B5036A026A22F09E
:1032C000010202624268846924F073050C682C4391
:1032D00023F002058B682B430A4DA8420BD123F043
:1032E0000805CB6822F440722B434D6923F0040398
:1032F00015438A692A4342608461496841630362D5
:1033000030BD0000002C014030B5026A036A23F092
:1033100010030362436884690D6824F4E64444EAB8
:1033200005248D6822F0200242EA05120B4DA842C6
:103330000ED1CD6822F0800242EA05124D6923F4D5
:10334000406343EA85038D6922F0400243EA850326
:103350004360846149688163026230BD002C014092
:1033600030B5036A026A22F4807202624268C4695C
:1033700023F4007324F073050C682C438D6843EA32
:1033800005230C4DA8420ED1CD6823F4006343EA17
:1033900005234D6922F4405242EA05128D6923F457
:1033A000806342EA05124260C4614968C1630362F6
:1033B00030BD0000002C014030B5046A026A22F4DE
:1033C000805202624268C3690D6823F4E64343EA0F
:1033D00005238D6824F4005444EA0534064DA842C0
:1033E00004D14D6922F4804242EA85124260C361F1
:1033F00049680164046230BD002C014010B5036AC5
:10340000046A24F001040462846924F0F00444EAAC
:10341000021423F00A020A438461026210BD10B54F
:10342000036A046A24F010040462846923F0A00390
:1034300024F4704444EA023243EA011182610162D9
:1034400010BD10B5406A0021C185C184FEF78AFE17
:1034500010BD01680C3151E8002F22F4907241E850
:103460000023002BF5D10168143151E8002F22F020
:10347000010241E80023002BF5D1016B012909D19C
:1034800001680C3151E8002F22F0100241E80023BE
:10349000002BF5D1202180F84210002101637047F4
:1034A00008B590F84210222901D0022008BD826898
:1034B0004FF480539A4201D1016921B1816A9A4245
:1034C0001BD04AB10AE00268816A5268C2F308025E
:1034D0000A80816A891C08E0026972B10268526838
:1034E00002F07F020A70816A491C8162C18D491E07
:1034F0000904090CC18503D01BE002685268F1E79A
:103500000168CA6822F02002CA600168CA6822F411
:103510008072CA6001684A6922F001024A61202172
:1035200080F8421000214163026B012A03D0FFF7AB
:103530003FF8002008BD016301680C3151E8002FFD
:1035400022F0100241E80023002BF5D101680A683F
:10355000D20602D50A6849680091818DFEF701FE06
:10356000E7E7000070B5044600680169E26821F4ED
:103570004051114301612169A06808436169084312
:103580002168CA6841F20C639A430243CA6020680A
:103590004169A26921F44071114341611E492068CB
:1035A000884202D1FDF7B2FF01E0FDF79FFF00EB7B
:1035B000C00101EB0012606864218000B2FBF0F3EF
:1035C000B3FBF1F36FF018067343B2FBF0F5B2FBF7
:1035D000F0F605EB8305322303EB0515B5FBF1F59A
:1035E000B6FBF1F605F0F00505EB0615B2FBF0F6BB
:1035F000B2FBF0F0B0FBF1F06FF01802504306EBB5
:10360000800003EB0010B0FBF1F0216800F00F0028
:103610002844886070BD0000003801402DE9F04169
:10362000984617460E460446069D27E0681C25D09E
:103630002DB1FDF76DFBA0EB0800A8421ED9206854
:103640000C3050E8001F21F4D07140E80012002A2D
:10365000F5D12068143050E8001F21F0010140E846
:103660000012002AF5D1202084F8410084F842009D
:10367000002084F840000320BDE8F0812068006845
:1036800036EA000004D00020B842CFD00020F3E793
:103690000120F9E710B501F09BFABDE810400148A0
:1036A000FEF762BDD8090020FEE700000FB4054B0D
:1036B00010B503A9044A029800F040F810BC5DF868
:1036C00014FB0000BD4000084C0800200FB4084B5C
:1036D00010B504A902AA039800F030F8044602A924
:1036E000002000F007F9204610BC5DF814FB000034
:1036F000F53800080907090E002804DB00F1E02076
:1037000080F80014704700F00F0000F1E02080F80E
:10371000141D7047004870475008002002E008C898
:10372000121F08C1002AFAD170477047002001E03B
:1037300001C1121F002AFBD1704700002DE9FF4F85
:103740008BB09A460F460546002606E025280BD08A
:1037500052460D9990476D1C761C28780028F5D1AB
:103760000FB03046BDE8F08F0024A046012260492A
:1037700000E0044315F8013F203B02FA03F0084241
:10378000F7D128782E2817D115F8010F44F004043A
:103790002A280ED06FF02F022878A0F130010929D5
:1037A0000AD808EB880102EB410100EB01086D1C0F
:1037B000F2E757F8048B6D1C287869283ED006DCA8
:1037C0000028CDD063280BD0642804D136E07328BC
:1037D00010D075284BD052460D999047761C85E045
:1037E00017F8040B8DF8000000208DF80100E94661
:1037F000012003E057F8049B4FF0FF3061074FF0C2
:10380000000401D40AE0641C44450DDA8442FADB6A
:1038100019F804100029F6D106E0641C8442FCDB90
:1038200019F804100029F8D1264404E019F8010B16
:1038300052460D999047641EF8D257E001CF4FF0E1
:103840000A0B002802DA40422D2102E0210504D5AE
:103850002B218DF82410012103E0E10705D0202160
:10386000F7E70DF1200908910CE00021F9E701CFFD
:103870004FF00A0BF9E75946FCF7D3FD01F130028E
:1038800009F8012D0028F6D1ADEB090000F1200B5D
:10389000600701D44FF00108D84502DDA8EB0B000A
:1038A00000E000208046002406E009A85246005DA2
:1038B0000D999047641C761C08988442F5DB04E05F
:1038C000302052460D999047761CB8F10001A8F1BE
:1038D0000108F5DC05E019F8010B52460D999047F7
:1038E000761CBBF10001ABF1010BF4DC6D1C34E77D
:1038F000092801000A68531C0B60107070472DE9FD
:10390000F04F87B04FF00005DDF840801E4693462B
:103910000C46070001950495A94602950FD076B193
:103920005FEA08000BD00A4601A9384601F0B7F853
:103930000198A0422CD2395C5B2902D028E0AFF379
:103940000080401C0190224601A9384601F0A7F8EA
:103950000DF1080A19E004AB224601A93846CDF85A
:1039600000A000F0C5FC98B1D94506D1049830609C
:1039700002990125C8F800100AE0224601A938463C
:1039800001F0A3F820B109F101090198A042E2D3A6
:1039900007B02846BDE8F08F02E00821491EFDD29D
:1039A000401EFAD27047000070B5002400F038F8CD
:1039B0004FF48075124E04E0641CE4B20120FFF75E
:1039C000EBFF29463046FDF799F910B1642CF3D38B
:1039D0000FE0642C0DD2002404E0641CE4B201204A
:1039E000FFF7DAFF29463046FDF788F918B1642C55
:1039F00004D3012070BD642CEFD3FAE7002070BD22
:103A00000008014010B500F091F84FF47A70FDF70E
:103A100073F800F08BF8BDE81040FFF7C5BF000059
:103A20001FB50020019003904FF48070009001209A
:103A3000029069460148FDF771F81FBD000801407A
:103A40001FB5002002904FF480700090012001907B
:103A50000320039069460248FDF760F81FBD00008F
:103A60000008014070B500244FF48075134E04E047
:103A7000641CE4B20120FFF78FFF29463046FDF7B2
:103A80003DF908B1642CF3D3002404E0641CE4B2D3
:103A90000120FFF781FF29463046FDF72FF908B9CD
:103AA000642CF3D32820FFF777FF29463046FDF733
:103AB00025F9002800D0012070BD00000008014059
:103AC00070B5002004464006050EFFF7CBFF641CCE
:103AD0002843E4B2082CF6D370BD2DE9FC410D4615
:103AE000064600F023F8FFF75FFF10B10120BDE8A4
:103AF000FC8100246F46FFF7E3FF3855641CE4B2F5
:103B0000052CF8D39DF800109DF801009DF80330B6
:103B10000A189DF8020003441A449DF804309A42A2
:103B200001D1297030700020E1E7000070B5FFF787
:103B300087FF0A4D4FF48074002221462846FDF786
:103B4000E2F81420FCF7D8FF012221462846FDF7B1
:103B5000DAF8BDE870401E20FFF71EBF00080140E4
:103B600070B54FF47A76002433461F2210A118480E
:103B7000FEF71FFD174D04E0641CA4B20120FCF702
:103B8000BBFF287860B1B4420CD24FF4FA50FCF776
:103B9000B3FF11A11148FCF7EBFA18B1002402E0C1
:103BA000B442E9D30124688801F002F8204670BDD0
:103BB00041542B43574A41503D226B34306A7A625C
:103BC000222C226A7A62313233343536220D0A00D1
:103BD000D8090020380800204F4B0000200A0020A0
:103BE00070B54FF47A7600243346492210491148C3
:103BF000FEF7DFFC104D04E0641CA4B20120FCF7CA
:103C00007BFF287860B1B4420CD241F28830FCF7D7
:103C100073FF0AA10A48FCF7ABFA18B1002402E0CE
:103C2000B442E9D30124688800F0C2FF204670BD89
:103C300090500008D8090020380800204F4B0000A1
:103C4000200A002070B539480068C16841F02001A1
:103C5000C16037A0FFF72AFD0021102339A20846D2
:103C6000FFF7BAF941F2883402E02046FCF744FF3E
:103C700000F022F90028F8D135A0FFF717FD002148
:103C8000102339A20846FFF7A7F94FF4FA5502E0CE
:103C90002846FCF731FFFFF763FF0028F8D136A074
:103CA000FFF704FD0021102339A20846FFF794F91D
:103CB0004FF4FA6402E02046FCF71EFF38A2A82168
:103CC000384800F031F90028F5D137A0FFF7EEFCB5
:103CD000002110233AA20846FFF77EF902E02846A9
:103CE000FCF70AFFFFF77CFF0028F8D137A0FFF7A9
:103CF000DDFC002110233AA20846FFF76DF902E02F
:103D00002046FCF7F9FE26A24921384800F00CF9BC
:103D10000028F5D136A0FFF7C9FCBDE8704010239C
:103D2000002139A20846FFF757B90000D809002042
:103D3000342E524553455420455350383236360DB3
:103D40000A000000342E524553455420455350007C
:103D5000352E434F4E4649472057494649204E4548
:103D600054574F524B0D0A00352E434F4E4649478C
:103D70002057494649000000362E4D5154542055D5
:103D800053455220434F4E4649470D0A000000005C
:103D9000362E5553455220434F4E464947000000AA
:103DA0004F4B0000AC4E0008372E434F4E4E45435C
:103DB00054204D5154542042524F4B45520D0A004D
:103DC000372E434F4E204D5154540000382E53553A
:103DD0004253435249424520544F5049430D0A0033
:103DE000382E53554220544F50494300584F000835
:103DF000392E4553503832363620494E4954204FDB
:103E00004B2121210D0A0000392E45535020494EE7
:103E10004954204F4B2121210000000030B5A1B0B2
:103E20000020209080216846FCF797F9174D2878EC
:103E3000012824D1A888401CA8800120FCF75CFE42
:103E4000A8880528F6D312A11548FCF791F9B0B15E
:103E50006B4620AA13491248FCF7A4F96A4612A03F
:103E60002099FFF723FC6846FCF794F920998842D3
:103E700005D1C9B2684600F0C5FA044600E0012445
:103E8000688800F095FE21B0204630BD380800203B
:103E90002B4D515454535542524543563A0000005D
:103EA000200A00201C5100086C656E3A25642C6DB8
:103EB00073673A25730D0A0070B500244FF47A73C6
:103EC000082212A11448FEF774FB144D4FF4FA6651
:103ED00004E0641CA4B20120FCF70EFE287860B157
:103EE000B4420CD241F28830FCF706FE0CA10D481A
:103EF000FCF73EF918B1002402E0B442E9D30124F2
:103F0000688800F055FE204670BD000041542B52D9
:103F100053540D0A00000000D80900203808002082
:103F20004F4B0000200A00202DE9F04117460A46B9
:103F30004FF47A760146002533461548FEF739FBE3
:103F4000144C03E001206D1CFCF7D6FD207818B15D
:103F5000B54204D3012514E0B542F3D3FAE74FF498
:103F6000FA75A088401CA0800120FCF7C5FDA08840
:103F7000A842F6D3022539460748FCF7F9F800B104
:103F80000025608800F014FE2846BDE8F08100009E
:103F9000D809002038080020200A0020F0B5344855
:103FA000304B314A3149C7B0007803AD1B781278E5
:103FB000097885E80F0031482E4A2F490078127899
:103FC00009888DE807002E480026344603782D48DE
:103FD0002D49027807A8FFF779FB07A8FCF7DAF864
:103FE00082B24FF47A752B4607A92848FEF7E1FA0A
:103FF00007A8FCF7CFF882B22B4607A92448FEF7A2
:10400000D8FA6F10234D04E0641CA4B20120FCF721
:1040100073FD287818B1BC4204D301261CE0BC42D1
:10402000F2D3FAE73220FCF767FD1BA11B48FCF72F
:104030009FF801004FF0000002D0002668700BE0EE
:104040006978491CC9B26970052905D1687014A046
:10405000FFF72CFBFFF7F6FD688800F0A9FD47B0DD
:104060003046F0BD16000020100000201300002094
:10407000120000201C000020180000201500002065
:104080001100002014000020A44F0008D8090020CF
:1040900090090020380800204F4B0000200A002023
:1040A0005245434F4E4E454354204D5154542042A7
:1040B000524F4B45522121210D0A000013B54FF6F6
:1040C000FF73012269460248FEF773FA00981CBD8F
:1040D000900900206E2817D006DC22280AD05B2821
:1040E0000CD0662804D10DE0742809D07B2803D0B9
:1040F0000220704701207047062070470720704754
:10410000032070470420704705207047A0F161012B
:10411000052902D92031052902D80A31C8B27047D1
:104120003038092801D8C0B2704710207047FDF719
:10413000B7F8FFF734F8FEF707FDFEF77DFDFEF751
:10414000BFFDFEF74BFEFEF765FEFEF795FDFEF7A1
:10415000E9FD00F061FD00F0B7FDFCE72DE9F04F4F
:1041600085B05FEA000A4FF00000DDE90E98CDE966
:1041700002101C4615464FF001070646049037D042
:10418000ADB35FEA090033D05FEA080030D071B305
:104190006CB30DF1080B0498A04254D2285C5B2844
:1041A00004D00498014615B32CBB21E04FF0FF303A
:1041B0000190049801AB401C0490224604A92846B3
:1041C00000F0B6FA0198002824DB0498A04221D21E
:1041D000295C5D291ED1401C0490CDF800B0DDE9BA
:1041E00001210AEB060003ABFFF789FB1DE0FFE7A7
:1041F000AFF30080401CA04204D22A5C2E2A01D0DA
:104200005B2AF7D1814205D2431A02460490601E10
:10421000824201D106271BE003AACDE9002B6A18D0
:104220000AEB0600029900F095F850B10398064495
:104230000498A042AFD2295C2E29ACD1401C049036
:10424000A9E7042704E0C9F800600299C8F8001043
:1042500005B03846BDE8F08F2DE9FC5F1F46DDE96B
:104260000DB9DDF830A016460D465FEA000829D0EA
:1042700045B33EB337B35FEA0A0023D05FEA0B00D1
:1042800020D05FEA09001DD02C6801A940460194A6
:1042900000F043FC002813D0601C386001983246BF
:1042A000001B801ECAF8000001A9404600F0F7FB81
:1042B0000198B04203D218F800103A2904D0002027
:1042C000BDE8FC9FAFF30080401C0190324601A97D
:1042D000404600F0E4FB5B46324601A94046CDF87B
:1042E000009000F005F80028EAD001992960E7E77E
:1042F0002DE9F84F1F46DDF8288091460D465FEA0C
:10430000000A4FF0010610D07DB1B9F1000F0CD0BA
:104310005FB15FEA080008D02C684A4669465046FB
:10432000009400F077F968B901E0AFF300804A46E5
:104330006946504600F0A8F9012803D0002630460F
:10434000BDE8F88F3C600098011BC8F80010009889
:104350002860F4E72DE9FF4F89B04FF00006DDE952
:1043600016870C46050003960496059611D00B9807
:1043700078B15FEA08000CD05FB10A4603A928466D
:1043800000F08DFB0398A04238D2295C7B2902D033
:1043900034E0AFF30080401C0390224603A9284676
:1043A00000F07DFB0DF114090DF1100A0DF1180B51
:1043B00021E0CDF800B0CDE901A908AB224603A960
:1043C0002846FFF749FFC8B1069A0C9890420CD1D5
:1043D000089829180B9800F0D1FB30B10499C8F85F
:1043E000001005980126386008E0224603A92846F7
:1043F00000F06BFB10B10398A042DAD30DB0304649
:10440000BDE8F08F2DE9F0478CB089468246002444
:1044100018222E4905A8FBF787FE49465046FEF7AD
:1044200063FB012803D001200CB0BDE8F087002613
:1044300005AD03AF0DF1100855F82400FBF7AAFEF7
:10444000CDF80080CDE90176034655F82420494691
:104450005046FEF740FB012805D0641C0120E4B261
:10446000062CE9D3E0E7DDE903031F5C1E5455F891
:10447000241017A0039AFFF719F9DDE90310475438
:1044800054B1012C0CD0022C0ED0032C10D0042CD3
:1044900012D0052C14D017E0FBF7B6FF114912E03B
:1044A000FBF7B2FF10490EE0FBF7AEFF0F490AE041
:1044B000FBF7AAFF0E4906E0FBF7A6FF0D4902E055
:1044C000FBF7A2FF0C4908700020ADE70C4E000876
:1044D000466F756E643A2025732025642D3E202595
:1044E000730A0000100000201400002015000020B6
:1044F00016000020130000201C0000202DE9F041D0
:1045000035490A6808B1521C00E0521E10460A6084
:10451000082A01D100200860401C01D10720086052
:104520004FF4405409682D48A60065004FF4104729
:1045300008294ED2DFE801F0040D161F27303C4554
:10454000012211030446FCF7DEFB00224FF4604118
:1045500006E0214601220446FCF7D5FB0022314645
:10456000204621E0012251030446FCF7CCFB002247
:104570004FF45041F4E7012229460446FCF7C3FBFF
:1045800000223946ECE7012291030446FCF7BBFB0D
:1045900000224FF43041E3E7012231460546FCF7A3
:1045A000B2FB002221462846BDE8F041FCF7ABBB38
:1045B0000122D1030446FCF7A6FB00224FF4E041A0
:1045C000CEE7012239460446FCF79DFB002229462E
:1045D000C6E7BDE8F081000048080020000C01405B
:1045E000054B4FF40051012803D001221846FCF777
:1045F0008ABB0022FAE7000000100140044B10B50E
:104600001C686063186882631868C16310BD00008D
:10461000480900202DE9F84315460E46804600243F
:1046200000F07BFAF8B90427404611A32A46314628
:10463000009700F012F9B0B9052000900EA32A46A9
:104640003146404600F009F968B90DA32A463146C3
:104650004046009700F001F928B92A463146404605
:1046600000F018F900B101242046BDE8F8830000ED
:10467000747275650000000066616C73650000006F
:104680006E756C6C000000002DE9F0438DB017468C
:104690000E465FEA00084FF000054FF0FF3405D0EA
:1046A00026B11FB13068E946099034E0AFF30080CD
:1046B00018F80030401C09905B2B06D05D2B0DD004
:1046C0007B2B02D07D2B2ED108E0641C24B2202C41
:1046D00002D009F8043019E003251FE0002C21DD89
:1046E00019F804007B2802D05B2803D01BE07D2B47
:1046F00002D018E05D2B16D1641E24B23A4609A9F7
:10470000404600F0E2F930B119F804303A4609A900
:10471000404600F096F90998B842C9D30DB0284632
:10472000BDE8F0830CB10225F8E701253060F5E71C
:104730002DE9F05F4FF0000A984617460E465FEAF3
:10474000000B554604D01EB117B13468A1461AE0DB
:10475000AFF300801BF80400A0F130010A2914D245
:10476000B8F1000F0ED0002D0CDBFFF7CFFC0D4988
:1047700040B28D4204DC05EB850100EB410501E010
:104780004FF0FF35641CBC42E4D34C4507D94FF0D1
:10479000010A3460B8F1000F01D0C8F8005050464B
:1047A000BDE8F09FCBCCCC0C2DE9FC410D4600249C
:1047B00048B145B13AB12B68511E8B4223D2C15C3E
:1047C0005C2902D01FE0AFF30080C1184978662948
:1047D00016D00BDC2F2913D003DCA1B122290DD177
:1047E0000EE05C290CD0622908D109E06E2907D0BF
:1047F000722905D0742903D0752907D0202902D247
:1048000001249B1C2B602046BDE8FC810093804660
:10481000164601AB694600F0DCF80028F3D0BDF87D
:1048200004004FF48067A0F55841B9420ED201ABA5
:1048300032466946404600F0CCF80028E3D0BDF887
:104840000400A0F55C40B84204D3DCE7A0F55C406E
:10485000B842D8D30124009BD4E770B50600049D6C
:104860000C464FF0000013D094B18AB183B1216897
:1048700091420CD2521AAA4209D388192A461946E3
:1048800000F07CF9002802D021682944216070BD25
:10489000AFF30080F0B585B00F46050014464FF029
:1048A000000609D047B13CB138680390A04207D256
:1048B000295C2D2902D003E0AFF30080401C039057
:1048C000A0423FD2295C30290FD0002303A92846FB
:1048D000FFF72EFF060035D0039822460090904245
:1048E00011D2295C2E2904D00DE00126401C039032
:1048F000F2E7401C0090002369462846FFF718FFA6
:1049000008B100980390039822460090904217D275
:10491000295C652901D0452912D1401C00909042A4
:1049200006D2295C2D2901D02B2901D1401C0090F1
:10493000002369462846FFF7FBFE08B10098039064
:104940000398386005B03046F0BDF8B514460D4602
:10495000060004D01DB114B12868009033E0AFF315
:10496000008022466946304600F0D7F800282CD057
:1049700022466946304600F092F80098A04202D2E2
:10498000315C3A2921D1401C0090224669463046CC
:1049900000F085F80098A04204D2305C7B2815D046
:1049A0005B2813D0224669463046FFF733FE0028C5
:1049B0000BD022466946304600F087F800992960FE
:1049C000002802D00098A042CBD3F8BD0098286000
:1049D000F8BD2DE9F0474FF0000A994688460600D9
:1049E00055460FD0B8F1000F0CD05AB1B9F1000FF5
:1049F00008D0D8F80040A71D974216D2305D5C2839
:104A000002D012E0AFF300803019407875280CD145
:104A1000A41C08E0305DFFF779FB102805D040EAC0
:104A2000051085B2641CBC42F4D3BC4206D12DB142
:104A3000A9F800504FF0010AC8F800405046BDE800
:104A4000F087F8B51F4615460C4606467B2B01D06D
:104A50005B2F10D100F023F85B2F06D02A462146A9
:104A60003046BDE8F840FFF770BF26B11CB115B164
:104A7000206800900EE0AFF300802A466946304679
:104A8000FFF7C8FD40B12A466946304600F01DF8E0
:104A900010B10098A842F0D300982060F8BD10B57E
:104AA00018B111B10AB10B680BE0AFF30080C45C20
:104AB000202C05D0092C03D00A2C01D00D2C02D1BA
:104AC0005B1C9342F3D30B6010BDF8B514460D4642
:104AD00006004FF000070BD055B14CB1FFF7DFFFD8
:104AE00028680090A04216D2315C2C2902D012E036
:104AF000AFF30080401C0090224669463046FFF725
:104B0000CEFF0098A04206D2315C7D2903D05D29FA
:104B100001D0012728603846F8BDF8B514460E4686
:104B200005004FF0000727D036B32CB33068009053
:104B3000A0421FD2295C22291CD1401C009017E002
:104B4000295C222908D05C290BD0202912D39DB1E1
:104B500094B1A042F1D30DE00127401C00903060D9
:104B600008E0224669462846FFF71EFE10B100986D
:104B7000A042E5D33846F8BDAFF3008070B510B160
:104B800009B1002306E0AFF30080C45CCD5CAC4209
:104B900002D15B1C9342F8D3934201D1012070BD36
:104BA000002070BD0148FDF757B800000009002043
:104BB00010B501460448FBF7D0FA044900204880AC
:104BC0000870888010BD0000200A002038080020EE
:104BD00038B50E4800248DF8004000680068C043D6
:104BE000800611D44FF47A73012269460748FDF715
:104BF00089FC0848064B9DF8002041885A54491CFE
:104C0000418001210170848038BD0000D809002056
:104C1000200A00203808002010B500211948FDF7AF
:104C20002FFA04211748FDF72BFA08211548FDF744
:104C300027FAFF2211461046FFF7E0FCFEF72EF997
:104C4000FBF7B2FEFEF7FEFF4FF4FA740BE02046CE
:104C5000FBF752FF0CA0FEF729FD002110230FA245
:104C60000846FEF7B9F9FEF7CDFE0028EFD1002186
:104C700010230FA20846FEF7AFF9BDE81040FFF77A
:104C800091BF000048090020646874313120696ECA
:104C90006974206661696C640D0A0000646874318F
:104CA0003120696E6974206661696C6400000000DF
:104CB0002020416C696261626120436C6F756420E1
:104CC000494F54200000000070B5FFF7A7F8354D9C
:104CD00000242888012804D13349481EFEF7FDFE30
:104CE0002C80324E304D3078AD1E01280ED1287800
:104CF000FFF776FC6879C0F1FF02A879C0F1FF01E7
:104D00002879C0F1FF00FFF779FC3470284E307825
:104D1000012809D124480830FBF75EFE22480830FC
:104D2000008840BA28813470224E3088012824D16E
:104D3000102321A202210020FEF74EF910231FA20A
:104D400002214020FEF748F910231DA20421002073
:104D5000FEF742F910236A7802211846FEF7E6F8BA
:104D60001023AA7802215020FEF7E0F810232A89A8
:104D700004211846FEF7DAF8348012480178012938
:104D800006D10470FFF70AF910B10FA0FEF78EFCF0
:104D9000124E3078012803D1E878FFF7AFFB34706A
:104DA00070BD000046080020120000203F080020CF
:104DB0004008002044080020543A0000483A00000F
:104DC0004C3A00003E0800206D73672073656E64E6
:104DD000206572726F720D0A000000004108002009
:104DE000010202030405060708090A0B0C0D0E0F49
:104DF000101000000000000000000102030406077C
:104E0000080900000000010203040000E850000847
:104E1000DC500008F45000080C5100086C510008E8
:104E20000051000800404040404040404040414167
:104E3000414141404040404040404040404040406F
:104E40004040404040050202020202020202020209
:104E50000202020202202020202020202020200206
:104E60000202020202029090909090901010101096
:104E70001010101010101010101010101010101032
:104E800002020202020288888888888808080808C6
:104E90000808080808080808080808080808080892
:104EA0000202020240000000254E000841542B4D32
:104EB000515454555345524346473D302C312C22D2
:104EC0006D7174745F73746D33327C736563757266
:104ED000656D6F64653D325C2C7369676E6D6574DA
:104EE000686F643D686D6163736861315C2C7469DF
:104EF0006D657374616D703D3137323730303837DE
:104F000034353039337C222C226D7174745F7374A4
:104F10006D3332266B31733567777830746B71225D
:104F20002C22353045343934363341323530463031
:104F3000444544383143354241373445394545309D
:104F400036373838394434414541222C302C302C06
:104F500022220D0A0000000041542B4D515454539D
:104F600055423D302C222F7379732F6B3173356787
:104F7000777830746B712F6D7174745F73746D33E7
:104F8000322F7468696E672F736572766963652F57
:104F900070726F70657274792F736574222C300D86
:104FA0000A00000041542B4D5154545055423D309D
:104FB0002C222F7379732F6B3173356777783074A8
:104FC0006B712F6D7174745F73746D33322F7468ED
:104FD000696E672F6576656E742F70726F7065727B
:104FE00074792F706F7374222C227B5C2270617233
:104FF000616D735C223A7B5C225265645C223A25C7
:10500000645C2C5C2274656D705C223A25645C2CB7
:105010005C22426C75655C223A25645C2C5C226CD7
:10502000696768745C223A25645C2C5C226E756D3D
:105030005C223A25645C2C5C2268756D695C223ABE
:1050400025645C2C5C226469726563745C223A2579
:10505000645C2C5C226C65645C223A25645C2C5C8C
:1050600022477265656E5C223A25645C7D5C2C5C2F
:105070002276657273696F6E5C223A5C22312E3043
:105080002E305C227D222C302C300D0A00000000D6
:1050900041542B4D515454434F4E4E3D302C226BB6
:1050A00031733567777830746B712E696F742D6149
:1050B000732D6D7174742E636E2D7368616E6768E5
:1050C00061692E616C6979756E63732E636F6D22F1
:1050D0002C313838332C300D0A00000070617261B9
:1050E0006D732E5265640000706172616D732E6C79
:1050F00065640000706172616D732E426C756500AD
:10510000706172616D732E6E756D000070617261F9
:105110006D732E477265656E000000002B4D515473
:1051200054535542524543563A302C222F737973CB
:105130002F6B31733567777830746B712F6D7174A5
:10514000745F73746D33322F7468696E672F736583
:1051500072766963652F70726F70657274792F73E0
:105160006574222C25642C25730000007061726127
:105170006D732E6469726563740000009C510008B1
:10518000000000205408000052090008D45600080E
:1051900054080020CC0700002C3700083201821090
:1051A000E324F48AB01B11422F1A0702111B147F4B
:1051B000021116242A7F2A12166264081323263647
:1051C00049552250430503341C22411C41221C2A0C
:1051D00015083E08141A0806320823A0602A0801A0
:1051E000211A600B11162010080402263E51494571
:1051F0003E1C427F40051561514946162141454BF1
:1052000031161814127F10162745454539163C4AA9
:105210004949301C0171096216364949493626064A
:105220004949291E4336362A56062B0814782A1473
:1052300001297E1314081602015109061632495934
:10524000513E167C1211127C3A7F3C163E41414180
:10525000221A7F053A1C1212411E7F090909011802
:105260001449497A1A7FA11A7F421A7F4E1E2040A4
:10527000413F0112295B1B7F400111167F020C0286
:105280007F3E7F0408107F483A3E3C1A060C1C51B2
:10529000215E0C141929461A465412311601017F59
:1052A00001011A3F35123F1E1F2040201F0C1A38E3
:1052B0000C16631408146316070870080719EF2307
:1052C0004543198B211B552A0219781A417D160472
:1052D0000201020429712240290B11162054545452
:1052E00078167F484444382E3844444420061348F6
:1052F0007F1A3818121816087E0901021D18A4A476
:10530000A4E425080404781B447D3B1D4080847D73
:105310005F341028441B417F121C7C04181E3A7C09
:10532000242948123816FC242424181A18053AFC9B
:105330001812081A4854122016043F444020163C04
:105340004040207C1A1CC01A1C0C1430403C2B44DA
:10535000284F161CA0A0A07C3F4464544C44140168
:10536000011372F84333301C100C0603912C40C01B
:10537000780319672A0403212D7088FC0829261850
:1053800020FF211E14F008F033E0184D211C031EED
:1053900011338870000C101E2123241927211010AE
:1053A000160E45E01804021C071820EA3D020418F6
:1053B000E0692C20180707174080F08040403F022A
:1053C00002010F01022842F01D0101011F04912B6F
:1053D00080B066B1191D2901913A30CE492C146074
:1053E00018043C6018061D1EE010080810721F0FFC
:1053F000102020100FF05310F83620203F20203CC2
:10540000700808C21E3028242221441E30088888D3
:1054100048082E1820202011CC3BC020322707043A
:1054200024243F241AF8202308084B19212036E0B1
:10543000108888184B0F11101E380808C838202112
:10544000523F1A702E29608F1C222121221C90119C
:105450001D31222211901961CAC0C26A80C6590842
:105460001C40201050170102040810204A4001116E
:105470004A04012119152A403219251B0402F21B86
:105480007048D13AF0501A360F1EC030C828E87064
:1054900028080718272423140B6F2A387E280D208C
:1054A0003C23020227382008F888889F4B203FF0D1
:1054B0001BC0303F1B083830191019781B08F80F33
:1054C000194039201B100F103E8888E8081010ACD6
:1054D00023201810112A035E2940223829402C224B
:1054E0001E024019A41809F808203F2101012125B6
:1054F0002A0852298129424149112EC08080807F8B
:105500000E2FF888C0281808501C0126382F294073
:10551000292F29801B20301012F81AF81413203F6D
:10552000190229204B30C0601A2074123F4BE01042
:10553000B06B0F10B029D01AF030198022017920F9
:105540003F18242438504FC04C888870C0140C3049
:10555000204B7088C11738202121221C3A189F4AFD
:10556000188239A049D0112A1F90121F2408788868
:105570001BC838151C07380E60191A1AF8201114A8
:10558000033C0714073C0348140818688080681817
:105590000820302C03032C30200838C82F595029FC
:1055A0008F29102F203826212020681145FE020265
:1055B00002257F4040401A0CE0611C0106380B199F
:1055C0001D42FE191D527F1A04120211045A800155
:1055D0001930D91D391621180819242222223F20FA
:1055E000AB390F115F3F112020110E21311A0E101F
:1055F0004B2011104B88F8102A10B359401A1F3F46
:105600002B22130F16F0888888181A20D029D14928
:105610007A21176B94949493603960190F4C203F52
:1056200021F354809898793059121AC02719D1194A
:105630003039311F203F24022D30212A08128930B1
:1056400069D7294B2903190BC96079A019BF2B20F1
:105650001FDD390F9C80FFA1E0191229D03BA0FF6C
:105660000C3950194112208A01C01B3324012A1918
:105670000F3AE0413952290F392349603C103F204D
:105680002C29053F010E3008060170291038080F3B
:10569000300C030C300F2C49A14E312E0E31200C52
:1056A00029621D818E70183059D1215721302C224A
:1056B000213055807C0202443F404072FF39083C53
:1056C00002027C8F5440403F000824060101020280
:0456D00004040000CE
:04000005080000ED02
:00000001FF
