:020000040800F2
:10000000302000209D0100085B2F000833270008E6
:10001000592F0008A90A0008E13700080000000075
:1000200000000000000000000000000005010008C2
:10003000AB0A00080000000049010008A1320008D6
:10004000B7010008B7010008B7010008B7010008B0
:10005000B7010008B7010008B7010008B7010008A0
:10006000B7010008B7010008B7010008B701000890
:10007000B7010008B7010008B7010008B701000880
:10008000B7010008B7010008B7010008B701000870
:10009000B7010008B7010008B7010008B701000860
:1000A000B7010008B7010008B7010008B701000850
:1000B0002D330008B701000839330008B7010008E4
:1000C000B7010008B7010008B7010008B701000830
:1000D000B7010008B7010008CD370008B7010008D4
:1000E000B7010008B7010008B7010008DFF810D019
:1000F00000F074FA004800470D440008AFF3008098
:1001000030200020224B19680868B0E8F00F80F317
:100110000988BFF36F8F4FF0000080F311884EF015
:100120000D0E70470000000006480068006880F36C
:10013000088862B661B6BFF34F8FBFF36F8F00DFE1
:1001400000BF00BF08ED00E0EFF30980BFF36F8F41
:100150000F4B1A6820E9F00F106008B54FF05000FF
:1001600080F31188BFF34F8FBFF36F8F05F0ACFCA6
:100170004FF0000080F31188BDE808401968086856
:10018000B0E8F00F80F30988BFF36F8F704700BFAE
:1001900070080020EFF30580704700000648804794
:1001A00006480047FEE7FEE7FEE7FEE7FEE7FEE75C
:1001B000FEE7FEE7FEE7FEE72B330008ED00000850
:1001C00040EA01039B0703D009E008C9121F08C0D9
:1001D000042AFAD203E011F8013B00F8013B521E59
:1001E000F9D27047D2B201E000F8012B491EFBD2D0
:1001F00070470022F6E710B513460A460446194632
:10020000FFF7F0FF204610BD30B505462A460B46E5
:1002100012F8010B13F8014B08B1A042F8D01CB141
:10022000002802D06D1CF1E7284630BD421C10F8B2
:10023000011B0029FBD1801A704700000FB400B5E4
:100240008DB010A909900B9000914FF0FF300A90EB
:1002500000200C9005480690054807906A4609A8BA
:100260000F9900F055F90DB05DF814FB2D0500084D
:100270004B0500082DE9FF5F1D464FF0FF3BD5E918
:10028000014691465F464FF00008A9697F1C01981E
:100290008847296A824688470028F6D1BAF1FF3F8D
:1002A0000CD024F4C064002E19DD600614D5BAF118
:1002B0002B0F09D0BAF12D0F0ED103E0584604B030
:1002C000BDE8F09F44F48064A9697F1C01988847C9
:1002D000761E8246002E02DDBAF1300F03D0B9F14E
:1002E000000F26D032E0A969761E44F400747F1C0A
:1002F000019888478246002E05DDBAF1780F06D0B6
:10030000BAF1580F03D0B9F1000F10D01EE0B9F1C7
:10031000000F02D0B9F1100F18D1A969761E24F48C
:1003200000747F1C019888478246102002E0082054
:1003300000E00A20814609E008FB0908A969761E49
:1003400044F400747F1C019888478246002E05DD26
:100350004946504600F0C7F80028EDDAE9690198EF
:100360008847A00502D46FF00100A8E7E00725D177
:10037000600613D5600502D5C8F1000000E04046D4
:1003800029680A1D2A600968220501D5087015E050
:10039000220701D5088011E008600FE02868011DE0
:1003A00029600068210502D580F8008006E0210759
:1003B00002D5A0F8008001E0C0F8008038467EE752
:1003C0002DE9FF5FD2E901A74FF000089169994636
:1003D0001446DDF838B0464601988847054659EA84
:1003E0000B0005D009E0A169761C019888470546F5
:1003F000216A284688470028F5D1681C03D05FEAA7
:10040000CA7005D015E04FF0FF3004B0BDE8F09F92
:100410002068011D2160D0F800800AE05FEACA7000
:1004200001D108F8015BA169761C7F1E01988847FD
:100430000546002F1ADD681C18D0B9F1000F0DD049
:10044000E81705EBD060421120F01F0059F8221088
:100450002A1A012090400142E0D107E0BBF1000FD1
:10046000DCD1216A284688470028D7D0E169019865
:100470008847BBF1000F07D1002E05DD5FEACA7087
:1004800002D1002188F80010A068B84203DDBBF15A
:10049000000F03D017B16FF00100B6E73046B4E7A4
:1004A00070B5064603F0D2F9046805460A22002119
:1004B000304600F05BF82C6070BD30B50B4601464D
:1004C00000202022012409E021FA02F59D4205D3F3
:1004D00003FA02F5491B04FA02F52844151EA2F19D
:1004E0000102F1DC30BD3A2800D2303820F0200281
:1004F000412A01D3A2F13700884201D34FF0FF30E7
:100500007047000002681144137801601846704774
:10051000D160044951610449116200211161114601
:1005200000F07CB80505000809060008426842B1E1
:10053000016811F8013B23B1521EC0E900121846B0
:1005400070470121C160881E704742685AB1C36874
:10055000016843B983688B4205D0491E521CC0E92B
:100560000012002070474FF0FF3070472DE9F04730
:1005700091460F4680460446002614F8015B2DB1D3
:1005800000F03EF80068405DC007F6D12B2D02D088
:100590002D2D18D0641E4A463946204600F0D6F963
:1005A00027B13968A14201D1C7F8008071054FF029
:1005B00002040BD54042002803DD03F047F9046034
:1005C000A007BDE8F08746F48066E4E70028F8DA83
:1005D00003F03CF904606FF00040F2E7064C074D71
:1005E00006E0E06840F0010394E807009847103403
:1005F000AC42F6D3FFF77EFD94690008B4690008A9
:10060000004870477066000810B50446FFF7F8FF11
:100610000068005D00F0010010BD00002DE9F34FFF
:100620008BB04FF0000801F10C000C464FF0010BAD
:1006300046460DF1080A0190626901210198904730
:10064000051E2DD0252D2CD0216A8847C0B16269A6
:10065000012101989047216A88470028F7D1411E5F
:1006600062690198904700E0761CA1690B98884761
:10067000216A88470028F7D1E1690B988847DBE7B2
:10068000A1690B9888470746A84201D1761CD3E799
:10069000E1690B9888477F1C02D1B8F1000F6FD039
:1006A00047E1002762693D463946019890472A286C
:1006B00004D162690121019890470125DFF88892F1
:1006C0006269012101989047A0F130010A290AD2FC
:1006D0004F45E5DC07EB870100EB4107303FDFD4F6
:1006E00045F01005ECE7E90601D46FF000476C28EF
:1006F0000AD04C2814D0682815D06A280DD0742848
:100700001CD07A281AD01DE0626901210198904717
:100710006C2802D045F0040514E045F002050DE018
:1007200045F020050AE06269012101989047682898
:1007300002D045F0080505E045F400656269012135
:1007400001989047C4E9015765283DD019DC582825
:100750007AD00CDC452837D004DC252826D0412867
:1007600031D131E046282FD047282CD12CE05B280E
:1007700077D0612828D063287CD0642823D15AE020
:10078000D1E06F2848D008DC66281DD067281BD030
:10079000692821D06E2816D127E0702845D073280B
:1007A00068D0752847D078280DD14DE0A1690B9805
:1007B0008847054625283FF469AFE1690B988847CB
:1007C0006D1C3FF46AAFB4E023466A466FF0010047
:1007D0000B99AFF300809FE045F040006060A807F0
:1007E00023464FF0000236D43EE0E8077FF447AFDF
:1007F0002068011D21600068290501D506701BE7EE
:10080000290701D5068017E7A90703D5F117C0E925
:10081000006111E706600FE745F040006060A8073F
:1008200023464FF0080216D41EE040F60E0125EADA
:100830000100606016E045F040006060A8072346B4
:100840004FF00A0207D40FE045F040006060A807AF
:1008500008D5234610226FF001000B99AFF30080FA
:100860005AE007E0234610226FF001000B99FFF7D2
:1008700001FD51E04FF000094F464B46632802D07E
:100880005B2807D041E02079C00601D40120A06098
:1008900001273AE062690121019890475E2805D15D
:1008A0004FF001096269494601989047216939B9B9
:1008B00000210A46534643F82120491C0829FADB47
:1008C000B0B3216969B9C11700EBD16253110AEBCA
:1008D000830122F01F02821A01200B68904003431B
:1008E0000B6062690121019890475D28E8D1B9F158
:1008F000000F09D00020514651F82020D24341F882
:100900002020401C0828F7DB02AB224600976FF03E
:1009100001000B99FFF754FD00280CDA401C08D1A8
:10092000BBF1000F05D04FF0FF300DB0BDE8F08FE8
:10093000FFE74046F9E7E90701D108F1010806445D
:100940004FF0000B78E60000CCCCCC0C2DE9F05F2A
:1009500082460078002715468B460AF10104B94605
:10096000302801D09DB113E014F8010B012778283D
:1009700003D0582801D045B10AE00DB1102D07D1A0
:100980000027102514F8010B02E0082500E00A25D5
:100990000026B0460EE005FB080005FB06F1012726
:1009A00001EB10461FFA80F8B6F5803F00D3B94638
:1009B00014F8010B2946FFF796FD0028EBDABBF18E
:1009C000000F05D00FB1641E00E05446CBF8004084
:1009D000B9F1000F06D002F039FF02210160C81EF4
:1009E000BDE8F09F48EA0640FAE770B58C1810F8A9
:1009F000015B15F0070301D110F8013B2A1106D164
:100A000010F8012B03E010F8016B01F8016B5B1E7D
:100A1000F9D12B0705D40023521E0DD401F8013B58
:100A2000FAE710F8013BCB1A921C03E013F8015BC4
:100A300001F8015B521EF9D5A142D8D3002070BD48
:100A400038B50AA0012100680090684600F01EF841
:100A50006C460121601C00F019F80121A01C00F077
:100A600015F80121E01C00F011F838BD0101071054
:100A700008B54FF4FA71024600910223472102485B
:100A800000F05CFA08BD00002C0B002008B54FF404
:100A9000FA7200920B4602464621024800F076FBAD
:100AA00008BD00002C0B0020FEE7704772B6FEE781
:100AB00010B590F821100022022905D0042181638D
:100AC00080F82020012010BD01680B6823F00E0380
:100AD0000B6001680B6823F001030B6090F8403055
:100AE000C46B012101FA03F3636080F8211080F8E0
:100AF0002020104610BD000010B590F821100024F1
:100B0000022903D00421816301243DE001680A68C1
:100B100022F00E020A6001680A6822F001020A60EF
:100B20001A4A0168914201D1012121E0174A143289
:100B3000914201D110211BE0144A2832914201D187
:100B4000891515E0114A3C32914201D189140FE018
:100B50000E4A5032914202D14FF4803108E00B4AE4
:100B60006432914202D14FF4801101E04FF0807164
:100B7000064A083A5160012180F82110002180F8CE
:100B80002010416B01B18847204610BD080002408B
:100B900070B5044600F008F90546601C02D0044810
:100BA0000078044400F000F9401BA042FAD370BD65
:100BB000640800202DE9F84FDFF8B8910024A9F16E
:100BC000040B23460F2709F1040AABF1040EC9E018
:100BD0000125A5402A40AA427DD1674ED1F804C024
:100BE000ACEB0608B44532D014DCBCF1030F3AD0AC
:100BF00009DCBCF1000F2AD0BCF1010F1CD0BCF104
:100C0000020F31D11DE0BCF1110F17D0BCF1120F52
:100C10002AD119E0B8F5881F19D006DCB8F5803F55
:100C200015D0B8F5801F1FD111E0B8F5001F0ED008
:100C3000B8F5041F18D10AE0CB6815E0CB681B1D7E
:100C400012E0CB6808330FE0CB680C330CE08B6804
:100C50002BB1012B4FF0080303D0456104E00423BE
:100C600002E0056100E00023FF2A01D8064601E00A
:100C700000F104064FEA840501D9A5F12005D6F854
:100C8000008007FA05FC28EA0C0803FA05F548EA93
:100C90000508C6F800804D68ED0062D5374DAE6995
:100CA00046F00106AE61AD6924F0030605F00105CA
:100CB0000095334D06EB050CDCF80850A607360FFF
:100CC00007FA06F825EA0805DFF8B880404503D1A1
:100CD0004FF0000817E044E0DFF8AC80404502D157
:100CE0004FF001080FE0DFF8A480404502D14FF03B
:100CF000020808E0DFF89880404502D14FF0030871
:100D000001E04FF0040808FA06F848EA0508CCF8B4
:100D100008804D68D9F80060ED024D4601D51643B4
:100D200000E096432E604D68DAF80060AD0255464B
:100D300001D5164300E096432E604D68DBF8006055
:100D4000AD035D4601D5164300E096432E604D6825
:100D5000DEF80060ED03754601D5164300E09643CA
:100D60002E60641C0D682A46E5407FF431AFBDE873
:100D7000F88F00000804014000001110001002402C
:100D80000000014000080140000C0140001001403B
:100D9000001401408068084000D0012070470AB16B
:100DA000016170470904FBE7014880687047000053
:100DB0006408002070B5040025D094F83D0000259B
:100DC00020B984F83C50204600F076FA242084F8BC
:100DD0003D002068016821F0010101602068016880
:100DE00041F4004101602068016821F40041016084
:100DF00000F01AFC4D4A6168914201D84C4900E06C
:100E00004C49884201D2012070BD4B492368B0FB98
:100E1000F1F15E6826F03F060E435E606368934220
:100E200006D94FF4967359434FF47A73B1FBF3F13B
:100E30002368491C1E6A26F03F0631431962616827
:100E4000914210D84900401EB0FBF1F2521CC2F38F
:100E50000B02042A01D2042022E0B0FBF1F0401C76
:100E6000C0F30B001CE0A268F2B301EBC10303EB7B
:100E70000116431EB3FBF6F35B1C43F480431B05D2
:100E800049D092B301EBC10202EB0111401EB0FB4D
:100E9000F1F0401CC0F30B0040F4804040F40040EF
:100EA0002168CA694CF6FF739A431043C861D4E9BC
:100EB000071001432068026822F0C002114301605C
:100EC000D4E9030101432068826848F2FF339A4362
:100ED00011438160D4E9050108432168CA6822F002
:100EE000FF021043C86001E00EE016E020680168D0
:100EF00041F0010101602564202084F83D00256354
:100F000084F83E50002070BD01EB4106431EB3FB48
:100F1000F6F35B1CB3E70120C2E701EB4101401E81
:100F2000B0FBF1F0401CC0F30B00B7E7A086010056
:100F300080841E0000093D0040420F002DE9F84F5B
:100F40000025DDF82890984617468A460446009505
:100F5000FFF72AFF064694F83D0020287AD119238E
:100F6000012286492046009601F0ECFC0028F5D1CC
:100F700094F83C0001286DD0012084F83C002068E2
:100F80000168C90703D1016841F0010101602068CF
:100F9000016821F400610160222084F83D001020E6
:100FA00084F83E0025646762A4F82A80608D20855D
:100FB0007348E06233464A465146204601F0D2FB70
:100FC00000287CD1208DDFF8BC81202768B1012862
:100FD00014D00228206801681ED041F480610160AD
:100FE0002068416980690090BBE02068416981699F
:100FF0000091016841F400710160B2E0206801686D
:1010000021F48061016072B62068416981690091B4
:10101000016841F400710AE041F40061016072B6B8
:101020002068416981690091016821F48061016053
:1010300062B696E0032865D801280CD002284B46FA
:101040004FF000024146204600960BD001F07AFC9A
:10105000A8BB0CE090E032464946204601F018FD5E
:1010600068BB71E001F06EFC48BB72B633E02068EB
:10107000016821F48061016072B620680069616ACC
:101080000870606A401C6062208D401E2085608D63
:10109000401E60853C4846F2A8110068B0FBF1F0A4
:1010A000C0EBC00000EB80000090401E009007D015
:1010B00020684069C04340070DD50098F5E727E058
:1010C00044F8305F6773A573206940F02000206109
:1010D00062B625731CE02068016841F4007101606C
:1010E00020680069616A0870606A401C6062218D36
:1010F000491E2185618D491E618562B62168096995
:10110000017025E032464946204601F0C1FC10B18D
:101110000120BDE8F88F20680069616A0870606A84
:10112000401C6062208D401E81B22185608D401E72
:10113000608520684269D243520712D4032903D143
:10114000016821F48061016020680069616A0870AB
:10115000606A401C6062208D401E2085608D401EAC
:101160006085208D00287FF465AF84F83D7084F899
:101170003E5084F83C50CCE70220CAE70200100041
:101180000000FFFF040001002C0000202DE9F84FB3
:101190001F4690468A460446DDF82890FFF704FE75
:1011A000054694F83D0020287FD1192301224049AB
:1011B0002046009501F0C6FB002876D194F83C004B
:1011C000012872D0012084F83C0020680168C9071A
:1011D00003D1016841F0010101602068016821F438
:1011E00000610160212084F83D00102084F83E0059
:1011F00000262664C4F824806785608D20852D48EC
:10120000E0622B464A465146204601F021FB90B948
:10121000206841698069009036E02A4649462046A8
:1012200001F06EFC50B1206C042804D120680168E4
:1012300041F4007101600120BDE8F88F606A216807
:1012400000780861606A401C6062618D491E61859A
:10125000218D491E89B2218522685369DB435B07D2
:101260000BD451B100781061606A401C6062608DDF
:10127000401E6085208D401E20852A464946204616
:1012800001F034FB0028CED1208D0028C5D154F8C0
:101290003D0B016841F400710160202004F81E0933
:1012A000E67766770020C7E7FFE70220C4E7000083
:1012B000020010000000FFFF10B586B00021009171
:1012C00001910291039100681349884222D1134C85
:1012D000A06940F00800A061A069694600F008001C
:1012E00004904FF44070009012200190032003906E
:1012F0000B48FFF75FFC0B48416841F0E06141F0AB
:1013000002014160E06940F40010E061E06900F42E
:101310000010049006B010BD0054004000100240C0
:10132000000C01400000014002488168027811442D
:101330008160704764080020074810B5016841F0DB
:1013400010010160032000F0A7F80F2000F006F85C
:1013500000F050F8002010BD0020024030B50546D6
:101360001F4887B0C16941F00401C161C06906A985
:1013700000F00400009001A800F036F90498B0B124
:1013800000F052F940001749174AB0FBF1F1174835
:10139000491E0260416040F2E7320021C0E90321AA
:1013A0008160816100F08CFC040003D015E000F046
:1013B0003BF9E8E70D4800F0D9FC04000DD11E20F0
:1013C00000F03CF8102D07D2002229461E2000F024
:1013D00043F80748056000E0012407B0204630BD0F
:1013E0000010024040420F0000080040F80C0020AE
:1013F000680800200F4808B5816941F0010181614A
:10140000816901F001010091C16941F08051C16120
:10141000C069002200F0805000900F21901E00F063
:101420001BF80548416821F0E06141F0007141601E
:1014300008BD00000010024000000140002809DB48
:1014400000F01F02012191404009800000F1E020DE
:10145000C0F8001170470000F0B40E4B1B680C463A
:10146000C3F30223C3F10705042D00D90425191D78
:10147000072901D2002300E0DB1E012606FA05F150
:10148000491E214099409E40761E16403143F0BCD3
:1014900002F0CCB90CED00E0064900F00702086844
:1014A0004FF6FF03184040EA0220034A1043086049
:1014B000704700000CED00E00000FA052DE9F04750
:1014C0000F46050061D0434E306800F00700B84277
:1014D00009D2306820F0070038433060306800F0EF
:1014E0000700B84251D128683B4C810712D540070C
:1014F00003D5606840F4E06060602878000703D599
:10150000606840F4605060606068A96820F0F00096
:10151000084360602878C00728D06868012810D088
:101520002168022810D0890700292EDA616821F08D
:10153000030101436160FFF737FC804641F28839BF
:101540000DE021688903EFE78901EDE7FFF72CFC47
:10155000A0EB0801494502D90320BDE8F087606887
:10156000696800F00C00B0EB810FEFD1306800F03B
:101570000700B8420BD9306820F0070038433060CC
:10158000306800F00700B84201D00120E5E7287874
:10159000400705D56068E96820F4E06008436060B2
:1015A0002878000706D56068296920F4605040EA71
:1015B000C100606000F058F86168084AC1F3031187
:1015C000515CC8400649086006480068FFF7C6FE3F
:1015D0000020C2E70020024000100240AC65000875
:1015E0002C000020680800200F2202600C4A53687B
:1015F00003F003034360536803F0F0038360536810
:1016000003F4E063C36052684FF4E06303EAD2027C
:1016100002610448006800F007000860704700009D
:101620000010024000200240044805490068496853
:10163000044AC1F30221515CC84070472C000020CD
:1016400000100240BC65000804480549006849686C
:10165000044AC1F3C221515CC84070472C000020ED
:1016600000100240BC6500080E4A51680E4801F0A7
:101670000C03042B11D0082B0FD10C48C1F383436A
:10168000C903C05C0AD55168084AC1F34041921EA3
:10169000515C054A5043B0FBF1F0704704494843A0
:1016A000704700000010024000127A00DE6500085A
:1016B00000093D002DE9F84F040070D02078C04D9E
:1016C000C00749D06868C0F38100012807D0686866
:1016D000C0F38100022809D16868C00306D52868D4
:1016E000800339D560680028E7D035E06068B0F540
:1016F000803F0BD010B1B0F5A02F11D0286820F496
:1017000080302860286820F4802002E0286840F4B7
:1017100080302860606890B1FFF746FB06460AE01B
:10172000286840F480202860F0E700BFFFF73CFB0A
:10173000801B642873D828688003F7D50CE0FFF776
:1017400033FB064605E000BFFFF72EFB801B642835
:10175000F0D828688003F7D420789A4E80074FF09D
:1017600001094FF0000839D5686810F00C0F07D058
:101770006868C0F38100022809D16868C00306D4F4
:101780002868800714D52069012808D110E0206955
:10179000B0B1C6F80090FFF707FB074605E00AE185
:1017A000FFF702FBC01B0228C4D828688007F7D5C2
:1017B0002868616920F0F80040EAC10028600DE067
:1017C000C6F80080FFF7F0FA074604E0FFF7ECFAEE
:1017D000C01B022823D828688007F7D42078000788
:1017E0002CD57948A169D9B1C0F80090FFF7DCFA8F
:1017F000074604E0FFF7D8FAC01B02280FD8686A32
:101800008007F7D571484FF4FA510068B0FBF1F04A
:10181000009000BF0098411E0091FAD20EE080E0D7
:10182000C0F80080FFF7C0FA074604E0FFF7BCFAF3
:10183000C01B022875D8686A8007F7D42078400753
:1018400060D5E8690027C00008D4E86940F08050FE
:10185000E861E869012700F0805000905C48016869
:10186000C90513D40168834641F480710160FFF714
:101870009BFA824606E000BFFFF796FAA0EB0A004B
:1018800064284ED8DBF80000C005F5D5E0680128D3
:101890000AD008B1052813D0286A20F00100286278
:1018A000286A20F0040002E0286A40F00100286263
:1018B000E06841F2883B98B1FFF776FA82460BE088
:1018C000286A40F004002862EEE700BFFFF76CFAD8
:1018D000A0EB0A0159455AD8286A8007F6D50CE0D2
:1018E000FFF762FA824605E0FFF75EFAA0EB0A0115
:1018F00059454CD8286A8007F6D41FB1E86920F012
:101900008050E861E06988B36968C1F38101022908
:1019100044D00228C6F8608004D0FFF745FA044698
:1019200038E034E0FFF740FA074604E0FFF73CFAFE
:10193000C01B02282BD828688001F7D4206AB0F594
:10194000803F05D16868A16820F4003008436860D2
:10195000D4E908010843696821F4741108436860F8
:10196000C6F86090FFF720FA044606E025E000BFC5
:10197000FFF71AFA001B022809D828688001F7D55A
:101980001BE000BFFFF710FA001B022802D903205A
:10199000BDE8F88F28688001F4D40EE00128F7D064
:1019A0006868226A00F48031914204D1616A00F4CF
:1019B0007010884201D00120EAE70020E8E700002B
:1019C0000010024000004242800442422C000020ED
:1019D0000070004070B5040009D0606A002540B175
:1019E00025616561A56294F8510040B10CE00120C9
:1019F00070BD6068B0F5827FF4D0E561F2E784F8ED
:101A00005050204600F040F8022084F85100206831
:101A1000016821F040010160A088218900F48270F2
:101A200001F404410843A18901F400610843217CC9
:101A300001F002010843217D01F001010843218BDF
:101A400001F400710843217F01F03801084394F844
:101A5000201001F080010843218D01F4005108435A
:101A600021680860A069042101EA104021684860EB
:101A70002068C16921F40061C1616565012084F8B5
:101A80005100002070BD000000B585B0002100911C
:101A900001910291039100680F4988421AD10F48C1
:101AA000816941F480518161816901F4805104911F
:101AB000816941F0040181618069694600F0040098
:101AC0000490A0200090022001900320039004487D
:101AD000FFF770F805B000BD003001400010024073
:101AE000000801402DE9F84F044690F85000002608
:101AF000984615468A4601280CD0012784F8507074
:101B0000FFF752F9814694F85100B346012804D0FA
:101B100002269AE00220BDE8F88FBAF1000F6FD0DC
:101B2000002D6DD0032084F85100C4F854B0C4F8DF
:101B300030A0A586E586C4F838B0A4F83CB0A4F877
:101B40003EB0C4F844B0C4F840B0A068B0F5004F4F
:101B500009D12068016821F0400101602068016816
:101B600041F48041016020680168490603D401689E
:101B700041F040010160E068B0F5006F606803D09B
:101B800058B3012D29D049E008B1012D1FD1206B98
:101B900021680088C86006E020688168890709D547
:101BA000216B0988C160206B801C2063E08E401E81
:101BB000E0860CE0FFF7F8F8A0EB0901414503D3FC
:101BC000B8F1FF3F03D006E0B8F1000F03D0E08E7C
:101BD0000028E1D125E0032635E0206B216800785C
:101BE000087306E02068816889070AD5216B0978A7
:101BF0000173206B401C2063E08E401EE0860DE0E8
:101C00001FE0FFF7D1F8A0EB0901414503D3B8F17C
:101C1000FF3F03D0DFE7B8F1000FDCD0E08E0028F3
:101C2000E0D14A464146204601F0CEFA08B12020D4
:101C30006065A06818B92068C16880680090606D10
:101C400008B1012601E084F8517084F850B03046A4
:101C500061E770477047000070B590F83C20012A9A
:101C600026D0012480F83C40022280F83D20036801
:101C70005A689D6822F070060A6832435A600D4B1C
:101C800002689A4208D0B2F1804F05D00A4B9A42BE
:101C900002D00A4B9A4204D1496825F080031943C7
:101CA000916080F83D40002180F83C10084670BDEE
:101CB000022070BD002C01400004004000080040DC
:101CC00010B5040003D094F83D0010B107E00120E6
:101CD00010BD002084F83C00204600F01FF80220D0
:101CE00084F83D00211D206801F02CFB012084F8C0
:101CF000460084F83E0084F83F0084F8400084F8F1
:101D0000410084F8420084F8430084F8440084F8D9
:101D1000450084F83D00002010BD000008B50168B2
:101D20001048B1F1804F0BD00F4A914207D1C169E1
:101D300041F00201C161C06900F00200009008BDDD
:101D4000C16941F00101C161C069002200F00100D8
:101D5000009005211C20FFF77FFBBDE808401C20F8
:101D6000FFF76CBB001002400004004090F83D10EB
:101D7000012901D001207047022180F83D1001683F
:101D8000CA6842F00102CA6000680B49884208D064
:101D9000B0F1804F05D00949884202D008498842F5
:101DA00004D1816801F00701062903D0016841F0E0
:101DB0000101016000207047002C01400004004038
:101DC0000008004070B5044690F83C00002501284A
:101DD00017D0012684F83C60022084F83D0020687A
:101DE000826822F0770222F47F42826008685028DD
:101DF00038D00DDC20284FD005DC90B3102811D14D
:101E00004AE0022070BD302846D040280AD13BE08D
:101E100060282FD070280DD0B0F5805F03D0B0F5CA
:101E2000005F12D0012584F83D60002084F83C005A
:101E3000284670BDCB68D1E90121206801F0C5FAC0
:101E40002068816841F0770109E0CB68D1E9012180
:101E5000206801F0BAFA2068816841F4804181600D
:101E6000E1E719E0CA684968206801F063FB502186
:101E7000206806E0CA684968206801F06CFB6021B0
:101E8000206801F0ACFACEE7CA684968206801F022
:101E900051FB40212068F4E7226801461046F0E734
:101EA000704770B50446006801694FF00005C943EA
:101EB000890715D4C168C943890711D4E91E016196
:101EC00001202077206880698007204602D0FFF734
:101ED000E7FF04E000F0C8F8204600F05AF9257743
:101EE00020680169C943490717D4C168C943490734
:101EF00013D46FF00401016102202077206880690B
:101F000010F4407F204602D0FFF7CAFF04E000F043
:101F1000ABF8204600F03DF9257720680169C943F8
:101F2000090716D4C168C943090712D46FF0080124
:101F30000161042020772068C0698007204602D014
:101F4000FFF7AEFF04E000F08FF8204600F021F923
:101F5000257720680169C943C90617D4C168C943F8
:101F6000C90613D46FF010010161082020772068A2
:101F7000C06910F4407F204602D0FFF791FF04E0D3
:101F800000F072F8204600F004F925772068016916
:101F9000C943C90708D1C168C943C90704D1891E0B
:101FA0000161204600F044F920680169C94309062F
:101FB00009D4C168C943090605D46FF080010161E5
:101FC0002046FFF746FE20680169C943490609D447
:101FD000C168C943490605D46FF04001016120463C
:101FE00000F030F920680169C94389060BD4C16843
:101FF000C943890607D46FF0200101612046BDE87E
:102000007040FFF727BE70BD00B585B0002100917C
:1020100001910291039100680F4988421AD10F483B
:10202000816941F0080181618069694600F008001A
:102030000490312000900220019003900848FEF7A0
:10204000B9FD0848416821F4406141F0E06141F484
:102050000061416005B000BD000400400010024076
:10206000000C014000000140704770B5044690F834
:102070003C0000260D4601280FD0012084F83C00CA
:102080006AB1042A1DD0082A2FD00C2A3FD001267D
:10209000002084F83C00304670BD022070BD2068EE
:1020A00001F0A6F92068816941F00801816120688A
:1020B000816921F004018161206881692A691143E5
:1020C00011E0206801F0BCF92068816941F40061E9
:1020D00081612068816921F4806181612068816962
:1020E0002A6941EA02218161D2E7206801F0D4F92E
:1020F0002068C16941F00801C1612068C16921F00F
:102100000401C1612068C1692A69114311E0206896
:1021100001F0EEF92068C16941F40061C1612068F5
:10212000C16921F48061C1612068C1692A6941EAFD
:102130000221C161ACE710B5040003D094F83D0062
:1021400010B107E0012010BD002084F83C002046BB
:1021500000F01EF8022084F83D00211D206801F0E7
:10216000F1F8012084F8460084F83E0084F83F002E
:1021700084F8400084F8410084F8420084F8430069
:1021800084F8440084F8450084F83D00002010BD28
:102190007047704710B50446022249B104290ED099
:1021A000082913D094F84100012816D0012010BD51
:1021B00094F83E000128F9D184F83E200FE094F80D
:1021C0003F000128F2D184F83F2008E094F8400055
:1021D0000128EBD184F8402001E084F8412001225D
:1021E000206801F0E5F80F492068884203D1426C6D
:1021F00042F4004242642068884208D0B0F1804F27
:1022000005D00949884202D00849884204D1816832
:1022100001F00701062903D0016841F001010160C6
:10222000002010BD002C01400004004000080040C8
:1022300000680349884201D1FFF776B87047000073
:10224000000800407047704770470000F8B501680B
:1022500004460868CA684B6910F00F0F4FF000057C
:1022600059D003F0010602F49077374365D0C107D7
:1022700005D0D10503D5616C41F0010161644107CE
:1022800005D5D90703D0616C41F002016164810773
:1022900005D5D90703D0616C41F0040161640107E1
:1022A00007D502F02001314303D0616C41F00801F1
:1022B0006164616C00293AD0800604D5900602D58D
:1022C000204601F089F920684069616CC0F38010F4
:1022D000090700D460B3204601F057F9206840692F
:1022E000400621D52068143050E8001F21F040013D
:1022F00040E80012002AF5D1E06BA8B16D494163B6
:10230000E06BFEF7F9FB002811D0E06B416B01B0E8
:10231000BDE8F040084783060FD593060DD520464B
:10232000BDE8F84001F058B92046FFF78DFFF8BD31
:102330002046FFF789FF6564F8BD266B2023012E38
:102340007CD1C6067AD5D60678D50868486800904C
:1023500048694FF00206400640D5E16B08684068C6
:102360000004000CE8D0A28D8242E5D9E08588699E
:1023700020282DD020680C3050E8001F21F48071F7
:1023800040E80012002AF5D12068143050E8001F00
:1023900021F0010140E80012002AF5D12068143034
:1023A00050E8001F21F0400140E80012002AF5D15A
:1023B00084F84230256320680C3050E8001F21F07B
:1023C000100140E80012002AF5D1E06BFEF770FB27
:1023D0006663A08DE18D401A81B22AE0A08DE18D67
:1023E000401A81B2E08D0028A6D00029A4D022682E
:1023F0000C3252E8000F20F4907042E80007002FE2
:10240000F5D12068143050E8002F22F0010240E896
:102410000027002FF5D184F84230256320680C3066
:1024200050E8002F22F0100240E80023002BF5D1E5
:1024300066632046FFF707FFF8BDFFE705062BD5CB
:10244000150629D594F841002128F5D1A068B0F5EA
:10245000805F01D12069B0B1206A411C21622168EE
:1024600000784860E08C401E0004000CE084E3D15A
:102470002068C16821F08001C1602068C16841F016
:102480004001C160D8E7206A0088C0F308004860B6
:10249000206A801C2062E5E74006CDD55006CBD5EA
:1024A000CA68204622F04002CA6084F8413000F039
:1024B0003FF9C1E77B35000870B5040004D094F8FB
:1024C0004100002510B106E0012070BD84F84050A5
:1024D000204600F023F8242084F841002068C168D9
:1024E00021F40051C160204601F0D8F8206801694C
:1024F00021F4904101612068416921F02A01416184
:102500002068C16841F40051C1606564202084F8EE
:10251000410084F842006563002070BD70B586B04C
:10252000002400940194029403942B4E03682B49D9
:10253000022003222A4DB34221D18B6943F4804308
:102540008B618B6903F4804304938B6943F004032C
:102550008B618969039201F0040104910102CDE9C4
:10256000001069462846FEF725FB2815CDE9000432
:10257000694628460294FEF71DFB06B070BD194E51
:10258000B342FAD1CB6943F40033CB61CB6903F496
:10259000003304938B6943F004038B6189690392D0
:1025A00001F0040104910421CDE900106946284698
:1025B000FEF700FB0820CDE9000469462846029496
:1025C000FEF7F8FA002205212620FEF745FF262017
:1025D000FEF734FFD1E70000003801400010024050
:1025E00000080140004400402DE9F843044690F8FB
:1025F0004200994616460D46202802D00220BDE82A
:10260000F883ADB1A6B100206064222184F84210A5
:102610002063FEF7C9FBA6858046E685A0684FF4D7
:102620008057B84201D1206920B12E46002526E00E
:102630000120E4E7002622E0434600222021204634
:10264000CDF8009001F086F808B10320D7E726B155
:10265000A068B8421BD038B108E020684068C0F3D9
:10266000080025F8020B07E0206980B12068406867
:1026700000F07F0006F8010BE08D401EE085E08D44
:102680000028D9D1202084F842000020B7E7206834
:102690004068EFE770472DE9F843044690F84100A1
:1026A0001F4616460D46202802D00220BDE8F883BA
:1026B0007DB176B100206064212084F84100FEF7EE
:1026C00073FBA6848046E684A068B0F5805F02D0E4
:1026D00003E00120EAE7206910B12E4600250EE054
:1026E00000260CE08021204601F034F8A0B9AEB1FC
:1026F00016F8010B21684860E08C401EE084E08CF5
:1027000043464FF0000200970028EBD14FF0400104
:10271000204601F01FF830B10320C7E735F8020B5F
:10272000C0F30800E6E7202084F841000020BDE760
:102730007047FEE701684A69D24352050FD46FF42F
:1027400080624A61002140F8301F20224273817369
:10275000026942F004020261017301207047002007
:10276000704700002DE9F84F0446C06A1E469346A4
:102770000D4621680A6842F480620A60082807D082
:10278000012805D010F5803F02D0206B112804D11C
:102790002068016841F4807101604FF001195B46C7
:1027A000002249462046009600F0CCF84FF400780D
:1027B00040B120680068C00501D5C4F840800320FE
:1027C000BDE8F88F2069DFF884A0B0F5804F0FD006
:1027D0000620216800EAD51747F0F000086133466B
:1027E0005A460AF10601204600F0F4F858BB03E00F
:1027F000E8B240F001001CE02168E8B2086133460D
:102800005A465146204600F0E5F8E0B92068416993
:1028100081690091016841F4807101605B4600228A
:1028200049462046009600F08DF80028C1D147F0B7
:10283000F1002168086133465A465146204600F0AF
:10284000C9F80028BCD00120BAE70000020001004E
:10285000F8B50446C06A1E460D461746082807D03C
:10286000012805D010F5803F02D0206B122804D13A
:102870002068016841F480710160134600224FF026
:1028800001112046009600F05DF840B12068006814
:10289000C00502D54FF4007020640320F8BD206904
:1028A000B0F5804F0ED00620216800EAD51040F028
:1028B000F000086133463A460B49204600F08AF89A
:1028C00078B902E005F0FE0000E0E8B22168086196
:1028D000054933463A46891F204600F07BF8002818
:1028E000DCD00120F8BD00000800010070B51646DC
:1028F0000D4604461EE02046FFF71CFF08B10120EC
:1029000070BD681C16D0FEF74FFA801BA84200D895
:1029100085B920684069C04340070BD5002044F8C2
:10292000300F20216173A073216941F020012161E2
:102930002073E4E720684069C0434007DBD40020EF
:1029400070BD00002DE9F047984617460D46044635
:10295000C1F30746DDF820902AE000BFB8F1FF3F41
:1029600026D0FEF721FAA0EB0901414502D8B8F1C3
:10297000000F1DD12068012E16D0806925EA0000C5
:102980000004000C12D00020B84211D1002044F8FD
:10299000300F20216173A073216941F02001216172
:1029A00020730120BDE8F0874069E7E70120EBE7ED
:1029B0002068012E0AD0806925EA00000004000C7E
:1029C00006D00020B842C9D00020EBE74069F3E709
:1029D0000120F7E72DE9F047984616460D460446D4
:1029E0004FF000094FF0200AC1F3074723E02068A9
:1029F0004069C043400515D42068016841F4007166
:102A0000016021686FF480604861C4F8309084F8F8
:102A10003DA084F83E90216C41F00401216484F8CB
:102A20003C9021E0701C06D0FEF7BEF9A0EB080038
:102A3000B04203D816B1012F1FD021E02068012F2A
:102A400015D0806925EA00000004000C18D000BFF2
:102A500044F8309F84F80DA084F80E90216941F06D
:102A60002001216184F80C900120BDE8F0874069C5
:102A700025EA00000004000CEAD12068406901E06A
:102A80002068806925EA00000004000CAFD1ECE763
:102A90002DE9F041002590460E460446202728E007
:102AA0004069C043C0060CD454F8301B6FF01000CE
:102AB000486144F810596777A577206A2062257726
:102AC00014E0FEF771F9A0EB0800B04200D886B917
:102AD00020684069C04340060BD544F8305F6773F7
:102AE000A573206940F02000206125730120BDE816
:102AF000F08120684169C9434906D1D40020F6E736
:102B000070B516460D4604461EE02046FFF712FE3D
:102B100008B1012070BD681C16D0FEF745F9801B76
:102B2000A84200D885B920684069C04300060BD58B
:102B3000002044F8300F20216173A073216941F017
:102B4000200121612073E4E720684069C04300064A
:102B5000DBD4002070BD2DE9FE430600DDE90A75D7
:102B6000DDF830800ED06AB167B15DB161B15BB1A3
:102B700002A8CDE90005304601F067FC04460128B3
:102B800004D017E0052415E0062413E00298305C19
:102B900001F0D4FB012805D10299491C0291296852
:102BA000891E29600299B8F1000F3144396001D0C3
:102BB00088F800002046BDE8FE83FEB508AF97E820
:102BC00070008DE87000FFF7C6FFFEBDF8B5060087
:102BD0004FF000000D4600900DD075B10A466946D1
:102BE000304602F00CFC2A466946304602F0C2F933
:102BF00028B101240BE0052415E0062413E02A4641
:102C00006946304602F0F0F9044601280BD10098DD
:102C1000A84208D22A466946304602F0F0FB0098E6
:102C2000A84200D002242046F8BD000000B587B0BD
:102C30001C2206496846FDF7C3FA0021684601F0E8
:102C4000AEFD0349886107B000BD0000A86400081C
:102C5000000000202DE9F04786B000263548009698
:102C6000019602960396816941F0100181618169A4
:102C700001F010010491816941F0200181618169B5
:102C800001F020010491816941F0040181618169B1
:102C900001F004010491816941F0080181618069BA
:102CA000012200F00800DFF89080540304902146D0
:102CB0004046FEF774F8DFF88490012240F60241A6
:102CC0004846FEF76CF800224FF470414846FEF784
:102CD00066F8DFF86CA06711002239465046FEF70F
:102CE0005EF80125CDE900450224CDE9025469468C
:102CF0004046FDF75FFFCDE900450294694648462E
:102D00000394FDF757FF4FF47C40CDE90005032005
:102D1000CDE9024069464846FDF74CFFCDE9026423
:102D2000CDE9007569465046FDF744FF06B0BDE8A1
:102D3000F08700000010024000100140000C01402C
:102D4000000801400D4810B50B4901600C49416075
:102D500000214FF480428160C0E90312416181612A
:102D6000C1610162FEF726F8002803D0BDE81040DB
:102D7000FDF79CBE10BD0000005400402C0B00204D
:102D8000A0860100104810B50E4901604FF4827111
:102D90004160002102228160C0E9031201224261E8
:102DA000520282611022C0E90721416281620A2138
:102DB000C162FEF70FFE002803D0BDE81040FDF70A
:102DC00075BE10BD00300140800B002010B586B0EC
:102DD00000241648009401940294039404944FF044
:102DE00080410594016041F61F41C0E9011464214E
:102DF000C0E903148461FEF763FF08B1FDF756FED6
:102E00004FF48050009069460848FEF7DBFF08B198
:102E1000FDF74CFE049404A904480594FEF71CFF3A
:102E2000002801D0FDF742FE06B010BDD80B0020EF
:102E300010B58EB000240794089409940A940B945A
:102E40001C2168460C94FDF7D4F9264824490160FA
:102E500040F2CF21C0E90114FE21C0E903148461CE
:102E6000FEF72EFF08B1FDF721FE4FF480500790CA
:102E700007A91C48FEF7A6FF08B1FDF717FE194881
:102E8000FFF759F908B1FDF711FE0B940BA915488E
:102E90000C94FEF7E1FE08B1FDF708FE6020CDE9D5
:102EA00000040294002269460E480494FFF7DDF8FE
:102EB00008B1FDF7FBFD042269460A48FFF7D5F883
:102EC00008B1FDF7F3FD082269460648FFF7CDF883
:102ED00008B1FDF7EBFD0348FFF796F80EB010BD03
:102EE00000040040200C00200C4810B50A49016085
:102EF0004FF4E1314160002181600C22C160C0E9E2
:102F000004128161C161FFF7D7FA002803D0BDE840
:102F10001040FDF7CBBD10BD00380140680C00200B
:102F20000C4810B50A4901604FF4E13141600021BD
:102F300081600C22C160C0E904128161C161FFF7A8
:102F4000BBFA002803D0BDE81040FDF7AFBD10BDAF
:102F500000440040B00C0020FEE7FEE710B511A0D1
:102F6000A2B0006820900020024669460A54401C26
:102F7000C0B28028FAD300240022032120A800F048
:102F8000F7F801228021684600F0F2F89DF88000F1
:102F9000641C401CE4B28DF88000082CECD322B0F5
:102FA00010BD0000B010000010B588B01C2211A1A7
:102FB0006846FDF705F9164C012202212046FDF76F
:102FC000EEFE6420FDF7E4FD002202212046FDF71D
:102FD000E6FE6420FDF7DCFD012202212046FDF71C
:102FE000DEFE00221C21684600F0C2F8FFF7B6FFA3
:102FF00008B010BDAE00104081CFA1C8A6A83FD335
:1030000000D580D9F1DA12DB4020028D14A4A6AFDE
:10301000000C0140074AB0311170102141EA101133
:10302000517000F00F00907000220321014800F061
:103030009FB800003C0000202DE9FC47894604466B
:10304000002198466D460A2009E000BFB2FBF0F36C
:1030500000FB1323B2FBF0F26B54491CC9B2092ADE
:10306000F4D86A54491CCEB234E0761EF6B2A85D9C
:103070001030C7B2B8F1080F03D0B8F1100F29D142
:103080000EE049462046FFF7C5FF144907EB47000D
:1030900001EB40000122062100F06AF8A41D18E0AF
:1030A00049462046FFF7B6FF0D48012200EB0717FF
:1030B0000821384600F05CF809F10100C1B2204651
:1030C000FFF7A8FF07F108000122082100F050F8DF
:1030D0000834E4B2002EC8D1BDE8FC873F000020D0
:1030E000670200202DE9F0479846164689460446B7
:1030F000002533E020386D1CC7B2EDB2B8F1080FDF
:1031000003D0B8F1100F29D10EE049462046FFF751
:1031100081FF154907EB470001EB40000122062122
:1031200000F026F8A41D18E049462046FFF772FF7C
:103130000E48012200EB07100746082100F018F89E
:1031400009F10100C1B22046FFF764FF07F1080052
:103150000122082100F00CF80834E4B2705D002868
:10316000C8D1BDE8F08700003F00002067020020C2
:103170002DE9F041124C0F4680464FF4806602B1B3
:10318000012231462046FDF70AFE4FF40065002279
:1031900029462046FDF703FE4FF4FA733A464146AE
:1031A0000848FEF79FFC012229462046FDF7F7FD5F
:1031B00031462046BDE8F0410122FDF7F0BD000098
:1031C000000C0140800B002038B50B4600920446ED
:1031D0000022802100F008F8002804D0606D40F043
:1031E00020006065032038BD2DE9F8431E46914656
:1031F00088460446089DFDF7D7FD401B351AFDF7AC
:10320000D3FD074625480068C0F3CB30684338E05B
:10321000701C37D0FDF7C8FDC01BA84203D215B102
:10322000009860B32CE02068416821F0E001416023
:103230006068B0F5827F0BD1A068B0F5004F02D076
:10324000B0F5806F04D12068016821F04001016071
:10325000A06AB0F5005F09D12068016821F400512F
:1032600001602068016841F400510160012084F888
:103270005100002084F850000320BDE8F8830025A9
:10328000401E00902068816838EA010004D00021C7
:103290004945BDD10020F0E70121F9E72C000020CD
:1032A00010B5502080F31188BFF34F8FBFF36F8F9D
:1032B00002F0AEFF18B104494FF0805008600020C2
:1032C00080F3118810BD000004ED00E030B58FB030
:1032D00028216846FCF78DFF14210AA8FCF789FF16
:1032E00001210804CDE90010002402940225049174
:1032F000CDE907504FF4E01009906846FEF7DAF97F
:1033000008B172B6FEE70F20CDE90A054FF48060E0
:10331000CDE90C4002210AA80E94FEF7CFF8002850
:1033200001D072B6FEE70FB030BD70470148FEF71E
:10333000B8BD0000D80B00200148FEF7B2BD000068
:10334000F80C0020F0B50268164B174C174D4FF0E3
:103350008047984205D0B84203D0A04201D0A8428D
:1033600003D122F070064A683243984205D0B84231
:1033700003D0A04201D0A84203D122F44074CA680D
:1033800022434C6922F08002224302608A68C262B2
:103390000A688262984201D1096901630121416191
:1033A000F0BD0000002C0140000400400008004077
:1033B00010B501F01F030121046A99408C43046297
:1033C000016A9A401143016210BD10B5846842EA57
:1033D000032224F47F440A432243826010BD8268A2
:1033E00022F070020A4342F007018160704700003A
:1033F00030B5036A026A22F00102026242688469FF
:1034000024F073050C682C4323F002058B682B43D2
:103410000A4DA8420BD123F00805CB6822F4407274
:103420002B434D6923F0040315438A692A43426004
:10343000846149684163036230BD0000002C014093
:1034400030B5026A036A23F010030362436884699B
:103450000D6824F4E64444EA05248D6822F0200235
:1034600042EA05120B4DA8420ED1CD6822F080022F
:1034700042EA05124D6923F4406343EA85038D69EE
:1034800022F0400243EA8503436084614968816316
:10349000026230BD002C014030B5036A026A22F49A
:1034A000807202624268C46923F4007324F07305D9
:1034B0000C682C438D6843EA05230C4DA8420ED1BD
:1034C000CD6823F4006343EA05234D6922F440529A
:1034D00042EA05128D6923F4806342EA05124260D4
:1034E000C4614968C163036230BD0000002C014023
:1034F00030B5046A026A22F4805202624268C369EB
:103500000D6823F4E64343EA05238D6824F4005450
:1035100044EA0534064DA84204D14D6922F48042A4
:1035200042EA85124260C36149680164046230BDA9
:10353000002C014010B5036A046A24F001040462FF
:10354000846924F0F00444EA021423F00A020A43D6
:103550008461026210BD10B5036A046A24F010048D
:103560000462846923F0A00324F4704444EA023224
:1035700043EA01118261016210BD10B5406A002169
:10358000C185C184FEF760FE10BD01680C3151E8B1
:10359000002F22F4907241E80023002BF5D101683E
:1035A000143151E8002F22F0010241E80023002BE2
:1035B000F5D1016B012909D101680C3151E8002FC7
:1035C00022F0100241E80023002BF5D1202180F8E1
:1035D000421000210163704708B590F8421022297B
:1035E00001D0022008BD82684FF480539A4201D175
:1035F000016921B1816A9A421BD04AB10AE002688E
:10360000816A5268C2F308020A80816A891C08E054
:10361000026972B10268526802F07F020A70816A20
:10362000491C8162C18D491E0904090CC18503D062
:103630001BE002685268F1E70168CA6822F02002C4
:10364000CA600168CA6822F48072CA6001684A6967
:1036500022F001024A61202180F8421000214163DA
:10366000026B012A03D0FFF715F8002008BD0163A3
:1036700001680C3151E8002F22F0100241E80023CC
:10368000002BF5D101680A68D20602D50A6849689C
:103690000091818DFEF7D7FDE7E7000070B5044685
:1036A00000680169E26821F4405111430161216918
:1036B000A0680843616908432168CA6841F20C6345
:1036C0009A430243CA6020684169A26921F44071AB
:1036D000114341611E492068884202D1FDF7B4FFC1
:1036E00001E0FDF7A1FF00EBC00101EB00126068F3
:1036F00064218000B2FBF0F3B3FBF1F36FF0180626
:103700007343B2FBF0F5B2FBF0F605EB8305322311
:1037100003EB0515B5FBF1F5B6FBF1F605F0F00589
:1037200005EB0615B2FBF0F6B2FBF0F0B0FBF1F0E2
:103730006FF01802504306EB800003EB0010B0FB63
:10374000F1F0216800F00F002844886070BD00008F
:10375000003801402DE9F041984617460E460446D0
:10376000069D27E0681C25D02DB1FDF71DFBA0EBC1
:103770000800A8421ED920680C3050E8001F21F430
:10378000D07140E80012002AF5D12068143050E8CA
:10379000001F21F0010140E80012002AF5D120208D
:1037A00084F8410084F84200002084F8400003209F
:1037B000BDE8F0812068006836EA000004D00020EF
:1037C000B842CFD00020F3E70120F9E710B501F0AF
:1037D0004BFFBDE810400148FEF738BDB00C00209B
:1037E000FEE700000FB4054B10B503A9044A029888
:1037F00000F040F810BC5DF814FB00002543000801
:10380000D00800200FB4084B10B504A902AA0398F1
:1038100000F030F8044602A9002000F007F9204625
:1038200010BC5DF814FB00002D3A00080907090ED2
:10383000002804DB00F1E02080F80014704700F05D
:103840000F0000F1E02080F8141D70470048704719
:10385000D408002002E008C8121F08C1002AFAD1CB
:1038600070477047002001E001C1121F002AFBD100
:10387000704700002DE9FF4F8BB09A460F46054672
:10388000002606E025280BD052460D9990476D1C66
:10389000761C28780028F5D10FB03046BDE8F08FAF
:1038A0000024A0460122604900E0044315F8013FCE
:1038B000203B02FA03F00842F7D128782E2817D1CE
:1038C00015F8010F44F004042A280ED06FF02F02DF
:1038D0002878A0F1300109290AD808EB880102EB09
:1038E000410100EB01086D1CF2E757F8048B6D1CD9
:1038F000287869283ED006DC0028CDD063280BD07C
:10390000642804D136E0732810D075284BD0524675
:103910000D999047761C85E017F8040B8DF8000090
:1039200000208DF80100E946012003E057F8049BD0
:103930004FF0FF3061074FF0000401D40AE0641C2F
:1039400044450DDA8442FADB19F804100029F6D157
:1039500006E0641C8442FCDB19F804100029F8D14D
:10396000264404E019F8010B52460D999047641E55
:10397000F8D257E001CF4FF00A0B002802DA40429C
:103980002D2102E0210504D52B218DF824100121E1
:1039900003E0E10705D02021F7E70DF120090891A8
:1039A0000CE00021F9E701CF4FF00A0BF9E7594687
:1039B000FCF783FD01F1300209F8012D0028F6D152
:1039C000ADEB090000F1200B600701D44FF00108B6
:1039D000D84502DDA8EB0B0000E000208046002463
:1039E00006E009A85246005D0D999047641C761CBC
:1039F00008988442F5DB04E0302052460D99904748
:103A0000761CB8F10001A8F10108F5DC05E019F811
:103A1000010B52460D999047761CBBF10001ABF1AA
:103A2000010BF4DC6D1C34E7092801000A68531C03
:103A30000B60107070472DE9F04F87B04FF0000514
:103A4000DDF840801E4693460C460700019504951C
:103A5000A94602950FD076B15FEA08000BD00A465E
:103A600001A9384601F0CBFC0198A0422CD2395C68
:103A70005B2902D028E0AFF30080401C0190224671
:103A800001A9384601F0BBFC0DF1080A19E004ABAE
:103A9000224601A93846CDF800A000F0A0FD98B15B
:103AA000D94506D10498306002990125C8F8001064
:103AB0000AE0224601A9384601F0B7FC20B109F11D
:103AC00001090198A042E2D307B02846BDE8F08F73
:103AD0001CB500200B4DADF800004FF47A7401A81E
:103AE000FCF7C6FFBDF80400022340BAADF80000A1
:103AF00000226946E86902F005F9204600F030FE30
:103B0000EDE700000000002002E00821491EFDD280
:103B1000401EFAD27047000070B5002400F038F85B
:103B20004FF48075124E04E0641CE4B20120FFF7EC
:103B3000EBFF29463046FDF72DF910B1642CF3D385
:103B40000FE0642C0DD2002404E0641CE4B20120D8
:103B5000FFF7DAFF29463046FDF71CF918B1642C4F
:103B600004D3012070BD642CEFD3FAE7002070BDB0
:103B70000008014010B500F091F84FF47A70FDF79D
:103B800007F800F08BF8BDE81040FFF7C5BF000054
:103B90001FB50020019003904FF480700090012029
:103BA000029069460148FDF705F81FBD0008014075
:103BB0001FB5002002904FF480700090012001900A
:103BC0000320039069460248FCF7F4FF1FBD000084
:103BD0000008014070B500244FF48075134E04E0D6
:103BE000641CE4B20120FFF78FFF29463046FDF741
:103BF000D1F808B1642CF3D3002404E0641CE4B2CF
:103C00000120FFF781FF29463046FDF7C3F808B9C8
:103C1000642CF3D32820FFF777FF29463046FDF7C1
:103C2000B9F8002800D0012070BD00000008014054
:103C300070B5002004464006050EFFF7CBFF641C5C
:103C40002843E4B2082CF6D370BD2DE9FC410D46A3
:103C5000064600F023F8FFF75FFF10B10120BDE832
:103C6000FC8100246F46FFF7E3FF3855641CE4B283
:103C7000052CF8D39DF800109DF801009DF8033045
:103C80000A189DF8020003441A449DF804309A4231
:103C900001D1297030700020E1E7000070B5FFF716
:103CA00087FF0A4D4FF48074002221462846FDF715
:103CB00076F81420FCF76CFF012221462846FDF718
:103CC0006EF8BDE870401E20FFF71EBF00080140DF
:103CD0001CB500200D4C8DF800008DF804004FF449
:103CE000FA6501A96846FFF7B0FF02230022694682
:103CF000206A02F007F80223002201A9206A02F0DC
:103D000001F8284600F02CFDEBE700000000002041
:103D100070B54FF47A76002433461F2210A118485C
:103D2000FEF7B9FC174D04E0641CA4B20120FCF7B7
:103D30002FFF287860B1B4420CD24FF4FA50FCF750
:103D400027FF11A11148FCF75FFA18B1002402E027
:103D5000B442E9D30124688801F076FC204670BDA6
:103D600041542B43574A41503D226B34306A7A62AA
:103D7000222C226A7A62313233343536220D0A001F
:103D8000B00C0020580800204F4B0000400D0020D0
:103D900070B54FF47A760024334649221049114811
:103DA000FEF779FC104D04E0641CA4B20120FCF77E
:103DB000EFFE287860B1B4420CD241F28830FCF7B3
:103DC000E7FE0AA10A48FCF71FFA18B1002402E036
:103DD000B442E9D30124688801F036FC204670BD66
:103DE000A8680008B00C0020580800204F4B0000C5
:103DF000400D002070B539480068C16841F02001CD
:103E0000C16037A0FFF7EEFC0021102339A208465D
:103E1000FFF768F941F2883402E02046FCF7B8FE6B
:103E200000F022F90028F8D135A0FFF7DBFC0021D3
:103E3000102339A20846FFF755F94FF4FA5502E06E
:103E40002846FCF7A5FEFFF763FF0028F8D136A04F
:103E5000FFF7C8FC0021102339A20846FFF742F9FA
:103E60004FF4FA6402E02046FCF792FE38A2A82143
:103E7000384800F031F90028F5D137A0FFF7B2FC3F
:103E8000002110233AA20846FFF72CF902E0284649
:103E9000FCF77EFEFFF77CFF0028F8D137A0FFF784
:103EA000A1FC002110233AA20846FFF71BF902E00B
:103EB0002046FCF76DFE26A24921384800F00CF997
:103EC0000028F5D136A0FFF78DFCBDE87040102327
:103ED000002139A20846FFF705B90000B00C002008
:103EE000342E524553455420455350383236360D02
:103EF0000A000000342E52455345542045535000CB
:103F0000352E434F4E4649472057494649204E4596
:103F100054574F524B0D0A00352E434F4E464947DA
:103F20002057494649000000362E4D515454205523
:103F300053455220434F4E4649470D0A00000000AA
:103F4000362E5553455220434F4E464947000000F8
:103F50004F4B0000C4660008372E434F4E4E45437A
:103F600054204D5154542042524F4B45520D0A009B
:103F7000372E434F4E204D5154540000382E535588
:103F80004253435249424520544F5049430D0A0081
:103F9000382E53554220544F504943007067000853
:103FA000392E4553503832363620494E4954204F29
:103FB0004B2121210D0A0000392E45535020494E36
:103FC0004954204F4B2121210000000030B5A1B001
:103FD0000020209080216846FCF70BF9174D2878C7
:103FE000012824D1A888401CA8800120FCF7D0FD1E
:103FF000A8880528F6D312A11548FCF705F9B0B139
:104000006B4620AA13491248FCF718F96A4612A019
:104010002099FFF7E7FB6846FCF708F920998842EA
:1040200005D1C9B2684600F0E5FB044600E0012472
:10403000688801F009FB21B0204630BD58080020F7
:104040002B4D515454535542524543563A000000AB
:10405000400D0020346900086C656E3A25642C6DB3
:1040600073673A25730D0A0070B500244FF47A7314
:10407000082212A11448FEF70EFB144D4FF4FA6605
:1040800004E0641CA4B20120FCF782FD287860B132
:10409000B4420CD241F28830FCF77AFD0CA10D48F5
:1040A000FCF7B2F818B1002402E0B442E9D30124CD
:1040B000688801F0C9FA204670BD000041542B52B7
:1040C00053540D0A00000000B00C002058080020D6
:1040D0004F4B0000400D00202DE9F04117460A46E5
:1040E0004FF47A760146002533461548FEF7D3FA99
:1040F000144C03E001206D1CFCF74AFD207818B138
:10410000B54204D3012514E0B542F3D3FAE74FF4E6
:10411000FA75A088401CA0800120FCF739FDA0881A
:10412000A842F6D3022539460748FCF76DF800B1DE
:104130000025608801F088FA2846BDE8F08100007B
:10414000B00C002058080020400D0020F0B5324F80
:104150002F4D304BC7B03F782D781B78CDE9031732
:10416000CDE905352D492E4B002609781B78CDE980
:10417000003203462B480291344602782A4907A8A8
:10418000FFF740FB07A8FCF751F882B24FF47A75AD
:104190002B4607A92548FEF77EFA07A8FCF746F844
:1041A00082B22B4607A92248FEF775FA6F10214DFF
:1041B00004E0641CA4B20120FCF7EAFC287818B1E2
:1041C000BC4204D301261CE0BC42F2D3FAE7322001
:1041D000FCF7DEFC18A11948FCF716F801004FF0B7
:1041E000000002D0002668700BE06978491CC9B253
:1041F0006970052905D1687011A0FFF7F3FAFFF780
:10420000F9FD688801F020FA47B03046F0BD0000A3
:1042100035000020300000203B0000203A00002044
:104220003400002033000020BC670008B00C0020E0
:10423000680C0020580800204F4B0000400D002063
:104240005245434F4E4E454354204D515454204205
:10425000524F4B45522121210D0A00008CB0002005
:104260008DF808008DF80C00ADF810008DF81400E2
:104270002B4C8DF818008DF81C008DF820008DF85F
:1042800024008DF82800451E4FF47A760AA909A863
:10429000CDE9000108AB07AA06A905A8FFF796FE1D
:1042A00000231A4605A9606A01F02CFD00231A4676
:1042B00006A9606A01F026FD00231A4607A9A06A34
:1042C00001F020FD00231A4608A9A06A01F01AFD9A
:1042D00000231A4609A9A06A01F014FD00231A461A
:1042E0000AA9A06A01F00EFD2A4604A9E06901F0BE
:1042F000B9FD2A4602A9206A01F0B4FD2A4603A9A5
:10430000206A01F0AFFDBDF810209DF80C109DF85B
:104310000800FFF71BFF304600F022FAB6E7000066
:104320000000002013B54FF6FF73012269460248D2
:10433000FEF7B1F900981CBD680C00206E2817D05C
:1043400006DC22280AD05B280CD0662804D10DE0B8
:10435000742809D07B2803D00220704701207047C1
:1043600006207047072070470320704704207047DD
:1043700005207047A0F16101052902D920310529E6
:1043800002D80A31C8B270473038092801D8C0B203
:1043900070471020704700001FB500201A4C8DF8A0
:1043A00000008DF804008DF808008DF80C00451E03
:1043B0004FF47A762A466946A06A01F0EDFD2A4656
:1043C00001A9A06A01F0E8FD2A4602A9A06A01F04D
:1043D000E3FD2A4603A9A06A01F0DEFD9DF8000076
:1043E00000F0AEFD9DF80800C0F1FF029DF80C0042
:1043F000C0F1FF019DF80400C0F1FF0000F0AEFD28
:10440000304600F0ADF9D5E700000020FCF794FF3E
:10441000FEF75CFFFEF71EFCFEF794FCFEF7D6FCF1
:10442000FEF762FDFEF77CFDFEF7ACFCFEF700FD3B
:1044300001F03EF9FEF7FAFB00F099F9FEE70146BC
:104440000020842900D0C81C70472DE9F04F85B0AA
:104450005FEA000A4FF00000DDE90E98CDE9021096
:104460001C4615464FF001070646049037D0ADB301
:104470005FEA090033D05FEA080030D071B36CB353
:104480000DF1080B0498A04254D2285C5B2804D09C
:104490000498014615B32CBB21E04FF0FF3001908A
:1044A000049801AB401C0490224604A9284600F061
:1044B000EFFD0198002824DB0498A04221D2295C5A
:1044C0005D291ED1401C0490CDF800B0DDE901212A
:1044D0000AEB060003ABFFF7AEFA1DE0FFE7AFF310
:1044E0000080401CA04204D22A5C2E2A01D05B2A04
:1044F000F7D1814205D2431A02460490601E8242DF
:1045000001D106271BE003AACDE9002B6A180AEBAC
:104510000600029900F095F850B1039806440498FB
:10452000A042AFD2295C2E29ACD1401C0490A9E74F
:10453000042704E0C9F800600299C8F8001005B02B
:104540003846BDE8F08F2DE9FC5F1F46DDE90DB967
:10455000DDF830A016460D465FEA000829D045B3C5
:104560003EB337B35FEA0A0023D05FEA0B0020D0E6
:104570005FEA09001DD02C6801A94046019400F0B3
:104580007CFF002813D0601C386001983246001B65
:10459000801ECAF8000001A9404600F030FF0198D3
:1045A000B04203D218F800103A2904D00020BDE828
:1045B000FC9FAFF30080401C0190324601A94046A9
:1045C00000F01DFF5B46324601A94046CDF8009041
:1045D00000F005F80028EAD001992960E7E72DE905
:1045E000F84F1F46DDF8288091460D465FEA000A25
:1045F0004FF0010610D07DB1B9F1000F0CD05FB1C2
:104600005FEA080008D02C684A4669465046009484
:1046100000F0B0FC68B901E0AFF300804A4669469B
:10462000504600F0E1FC012803D000263046BDE8EA
:10463000F88F3C600098011BC8F8001000982860B3
:10464000F4E72DE9FF4F89B04FF00006DDE916874A
:104650000C46050003960496059611D00B9878B188
:104660005FEA08000CD05FB10A4603A9284600F0B3
:10467000C6FE0398A04238D2295C7B2902D034E0E0
:10468000AFF30080401C0390224603A9284600F0A7
:10469000B6FE0DF114090DF1100A0DF1180B21E011
:1046A000CDF800B0CDE901A908AB224603A9284600
:1046B000FFF749FFC8B1069A0C9890420CD10898B0
:1046C00029180B9800F028FF30B10499C8F80010A1
:1046D00005980126386008E0224603A9284600F024
:1046E000A4FE10B10398A042DAD30DB03046BDE865
:1046F000F08F00000EB50020184C8DF800008DF8EA
:104700000400ADF80800451E4FF47A762A4602A947
:10471000E06901F0A7FB2A466946206A01F0A2FB86
:104720002A4601A9206A01F09DFB10239DF8002074
:1047300002211846FEF780FC10239DF80420022178
:104740005020FEF779FC1023BDF8082004211846FC
:10475000FEF772FC304600F003F8D7E700000020B7
:1047600010B500B9012001F0CFF8002010BD10B540
:1047700001F06CF9002010BD38B5D0E901120468D1
:104780003AB1C3682BB100200090204601F042FAF4
:1047900038BD2046BDE83840002201F017BA7FB589
:1047A0000D4604464169B0F9080081B1A16971B1B3
:1047B000FFF745FED4E905128DE80700D4E90010A3
:1047C0002B46226901F0EBFC039004B070BDFFF7AB
:1047D00036FE03A9CDE90001208A2B4682B2D4E936
:1047E000001001F0AFFC012801D00020EDE7039894
:1047F000EBE700002DE9F0478CB0894682460024A3
:1048000018222E4905A8FBF7DBFC49465046FEF767
:10481000DDF9012803D001200CB0BDE8F0870026A7
:1048200005AD03AF0DF1100855F82400FBF7FEFCB1
:10483000CDF80080CDE90176034655F8242049469D
:104840005046FEF7BAF9012805D0641C0120E4B2F5
:10485000062CE9D3E0E7DDE903031F5C1E5455F89D
:10486000241017A0039AFEF7BDFFDDE9031047549B
:1048700054B1012C0CD0022C0ED0032C10D0042CDF
:1048800012D0052C14D017E0FBF70AFE114912E0F4
:10489000FBF706FE10490EE0FBF702FE0F490AE0A7
:1048A000FBF7FEFD0E4906E0FBF7FAFD0D4902E0BD
:1048B000FBF7F6FD0C4908700020ADE7C465000861
:1048C000466F756E643A2025732025642D3E2025A1
:1048D000730A000030000020330000203400002064
:1048E000350000203B0000203A0000202DE9F04177
:1048F000184C0F46054666692068001D00F040FF11
:1049000038B9206890F82C1001208840A1698143B3
:10491000A161681C07D137B12168BDE8F0410E489C
:10492000091D00F071BF20683544B542456021681B
:1049300005D2A068BDE8F041091D00F04DBF6068D8
:10494000091D00F049FF206B854200D22563BDE8B8
:10495000F0810000700800201C1000202DE9F041BB
:10496000054600F05DFF2E4C2069401C2061206848
:104970002C4F10B1E06940B32DE02560206901287B
:1049800029D1002606EB860007EB800000F016FF19
:10499000761C072EF6D323488C3000F00FFF2148F9
:1049A000A03000F00BFF1F48B43000F007FF1D4897
:1049B000C83000F003FF1B48DC3000F0FFFE194850
:1049C0008C3060601430A06005E02068E96AC06A3D
:1049D000884200D82560E06A401CE062E96A012054
:1049E000A26988401043A06101EB810007EB8000C1
:1049F000291D00F009FF00F033FFE06900280CD00A
:104A00002068E96AC06A884207D207494FF080509F
:104A10000860BFF34F8FBFF36F8FBDE8F0810000D8
:104A200070080020400F002004ED00E030B4026C5C
:104A30000B46002A0BD0C1681144C1604468A142F2
:104A400001D30168C16030BC1846FBF7B9BB30BC6C
:104A500070472DE9F041856B174604460026026C2D
:104A600082B1C7B1E068FBF7ABFBE168206C091AC3
:104A7000E1602268914202D26168081AE060022F68
:104A800016D017E02068A8B9606801F025FC06463A
:104A9000002060600EE0A068FBF792FB216CA0682C
:104AA0000844A0606168884204D32068A06001E0E7
:104AB00005B16D1E6D1CA5633046BDE8F08110B5D3
:104AC000044690F8510058B101280CD002280FD0AC
:104AD000502080F31188BFF34F8FBFF36F8FFEE735
:104AE000206B00F0D1FE2046BDE8104000F0CCBEA7
:104AF00010BD000010484FF44061420706D0C01DB1
:104B00000D4920F00700411AC1F540610B4A00230E
:104B10000144C2E900030839103A21F0070111608D
:104B20004B600B600B1AC0E9001393604FF000401C
:104B30005360D0607047000030100020BC08002097
:104B4000144E154CA6F1C8074FF08058DFF84C9072
:104B500012E000BF00F064FEF068C568281D00F098
:104B60000FFE2069401E2061E068401EE06000F0FA
:104B700077FE2846FFF7A3FFE0680028EAD13868EF
:104B80000128F9D9C9F80080BFF34F8FBFF36F8FA9
:104B9000F2E70000081000207008002004ED00E09B
:104BA0000346009829B10260C0E90F31012101F0EC
:104BB00065B80060F8E72DE9F0479A46DDE9098419
:104BC00081466FF00303206B03EB82021044089DC3
:104BD00020F00706700707D0502080F31188BFF33C
:104BE0004F8FBFF36F8FFEE723180A5C83F83420E2
:104BF0000A5C12B1401C1028F6D3002784F84370D9
:104C0000072D00D30625E562C4E91157201D00F0E9
:104C1000E0FD04F1180000F0DCFD2461C5F107009F
:104C20006462A061E76484F8507052464946304699
:104C300000F002F92060B8F1000F01D0C8F8004080
:104C4000BDE8F08730B5114900E011460A6882429C
:104C5000FBD34B685C18844203D140681844486019
:104C6000084643681C18944209D1084C103C24683B
:104C7000A24209D052681A4442600A68126802606F
:104C8000814200D0086030BD0460F9E7BC08002014
:104C900010B5044600F0C4FDA06B28B15FF000041D
:104CA00000F0DEFD204610BD0124F9E7064841680A
:104CB000096829B14168C968C968496801637047D2
:104CC0004FF0FF31FAE70000700800200848406804
:104CD000401C4FF0500080F3118804D0BFF34F8F79
:104CE000BFF36F8FFEE7BFF34F8FBFF36F8FFEE70A
:104CF000C40800202DE9F041044600F091FD94F92C
:104D0000455004F1240609E0606A48B1304601F0DC
:104D10002FFB08B100F07CFE6D1E6DB2002DF3DCA0
:104D20004FF0FF3684F8456000F09AFD00F078FD02
:104D300094F9445004F1100709E0206948B138465D
:104D400001F016FB08B100F063FE6D1E6DB2002D80
:104D5000F3DC84F84460BDE8F04100F081BD000060
:104D60002DE9F0410546002700F0A6FE314E3068DF
:104D700008B9FFF7BFFEF06805424BD1C5B308354F
:104D800068070ED005F00700C0F108000544680769
:104D900007D0502080F31188BFF34F8FBFF36F8F80
:104DA000FEE72DB37068854234D8224810300146A2
:104DB0000C6801E020460C466168A94202D22168D5
:104DC0000029F7D131688C4224D00768216801603E
:104DD00060680837411B10290FD96019420708D0B5
:104DE000502080F31188BFF34F8FBFF36F8FFEE722
:104DF00010E041606560FFF725FF61687068401A48
:104E00007060B268904200D2B060F0680143002048
:104E1000C4E9000101F0E6FA780707D0502080F3DA
:104E20001188BFF34F8FBFF36F8FFEE73846BDE8A1
:104E3000F0810000AC08002010B5031F4FF0807413
:104E40001C601B1F21F001011960191F024B0B6030
:104E5000143940380A6010BDCD4C00082DE9F041EE
:104E600035490A6808B1521C00E0521E10460A601B
:104E7000082A01D100200860401C01D107200860E9
:104E80004FF4405409682D48A60065004FF41047C0
:104E900008294ED2DFE801F0040D161F27303C45EB
:104EA000012211030446FBF77AFF00224FF4604110
:104EB00006E0214601220446FBF771FF002231463D
:104EC000204621E0012251030446FBF768FF00223F
:104ED0004FF45041F4E7012229460446FBF75FFFF7
:104EE00000223946ECE7012291030446FBF757FF05
:104EF00000224FF43041E3E7012231460546FBF73B
:104F00004EFF002221462846BDE8F041FBF747BF8F
:104F10000122D1030446FBF742FF00224FF4E04197
:104F2000CEE7012239460446FBF739FF0022294625
:104F3000C6E7BDE8F081000060080020000C0140D9
:104F4000054B4FF40051012803D001221846FBF70E
:104F500026BF0022FAE7000000100140044B10B504
:104F60001C686063186882631868C16310BD000024
:104F7000200C00202DE9F84315460E4680460024FB
:104F800000F07BFAF8B90427404611A32A463146BF
:104F9000009700F012F9B0B9052000900EA32A4640
:104FA0003146404600F009F968B90DA32A4631465A
:104FB0004046009700F001F928B92A46314640469C
:104FC00000F018F900B101242046BDE8F883000084
:104FD000747275650000000066616C736500000006
:104FE0006E756C6C000000002DE9F0438DB0174623
:104FF0000E465FEA00084FF000054FF0FF3405D081
:1050000026B11FB13068E946099034E0AFF3008063
:1050100018F80030401C09905B2B06D05D2B0DD09A
:105020007B2B02D07D2B2ED108E0641C24B2202CD7
:1050300002D009F8043019E003251FE0002C21DD1F
:1050400019F804007B2802D05B2803D01BE07D2BDD
:1050500002D018E05D2B16D1641E24B23A4609A98D
:10506000404600F0E2F930B119F804303A4609A997
:10507000404600F096F90998B842C9D30DB02846C9
:10508000BDE8F0830CB10225F8E701253060F5E7B3
:105090002DE9F05F4FF0000A984617460E465FEA8A
:1050A000000B554604D01EB117B13468A1461AE072
:1050B000AFF300801BF80400A0F130010A2914D2DC
:1050C000B8F1000F0ED0002D0CDBFFF753F90D499E
:1050D00040B28D4204DC05EB850100EB410501E0A7
:1050E0004FF0FF35641CBC42E4D34C4507D94FF068
:1050F000010A3460B8F1000F01D0C8F800505046E2
:10510000BDE8F09FCBCCCC0C2DE9FC410D46002432
:1051100048B145B13AB12B68511E8B4223D2C15CD4
:105120005C2902D01FE0AFF30080C11849786629DE
:1051300016D00BDC2F2913D003DCA1B122290DD10D
:105140000EE05C290CD0622908D109E06E2907D055
:10515000722905D0742903D0752907D0202902D2DD
:1051600001249B1C2B602046BDE8FC8100938046F7
:10517000164601AB694600F0DCF80028F3D0BDF814
:1051800004004FF48067A0F55841B9420ED201AB3C
:1051900032466946404600F0CCF80028E3D0BDF81E
:1051A0000400A0F55C40B84204D3DCE7A0F55C4005
:1051B000B842D8D30124009BD4E770B50600049D03
:1051C0000C464FF0000013D094B18AB183B121682E
:1051D00091420CD2521AAA4209D388192A4619467A
:1051E00000F09AF9002802D021682944216070BD9E
:1051F000AFF30080F0B585B00F46050014464FF0C0
:10520000000609D047B13CB138680390A04207D2EC
:10521000295C2D2902D003E0AFF30080401C0390ED
:10522000A0423FD2295C30290FD0002303A9284691
:10523000FFF72EFF060035D00398224600909042DB
:1052400011D2295C2E2904D00DE00126401C0390C8
:10525000F2E7401C0090002369462846FFF718FF3C
:1052600008B100980390039822460090904217D20C
:10527000295C652901D0452912D1401C009090423B
:1052800006D2295C2D2901D02B2901D1401C009088
:10529000002369462846FFF7FBFE08B100980390FB
:1052A0000398386005B03046F0BDF8B514460D4699
:1052B000060004D01DB114B12868009033E0AFF3AC
:1052C000008022466946304600F0D7F800282CD0EE
:1052D00022466946304600F092F80098A04202D279
:1052E000315C3A2921D1401C009022466946304663
:1052F00000F085F80098A04204D2305C7B2815D0DD
:105300005B2813D0224669463046FFF733FE00285B
:105310000BD022466946304600F087F80099296094
:10532000002802D00098A042CBD3F8BD0098286096
:10533000F8BD2DE9F0474FF0000A9946884606006F
:1053400055460FD0B8F1000F0CD05AB1B9F1000F8B
:1053500008D0D8F80040A71D974216D2305D5C28CF
:1053600002D012E0AFF300803019407875280CD1DC
:10537000A41C08E0305DFEF7FDFF102805D040EAD0
:10538000051085B2641CBC42F4D3BC4206D12DB1D9
:10539000A9F800504FF0010AC8F800405046BDE897
:1053A000F087F8B51F4615460C4606467B2B01D004
:1053B0005B2F10D100F023F85B2F06D02A46214640
:1053C0003046BDE8F840FFF770BF26B11CB115B1FB
:1053D000206800900EE0AFF300802A466946304610
:1053E000FFF7C8FD40B12A466946304600F01DF877
:1053F00010B10098A842F0D300982060F8BD10B515
:1054000018B111B10AB10B680BE0AFF30080C45CB6
:10541000202C05D0092C03D00A2C01D00D2C02D150
:105420005B1C9342F3D30B6010BDF8B514460D46D8
:1054300006004FF000070BD055B14CB1FFF7DFFF6E
:1054400028680090A04216D2315C2C2902D012E0CC
:10545000AFF30080401C0090224669463046FFF7BB
:10546000CEFF0098A04206D2315C7D2903D05D2991
:1054700001D0012728603846F8BDF8B514460E461D
:1054800005004FF0000727D036B32CB330680090EA
:10549000A0421FD2295C22291CD1401C009017E099
:1054A000295C222908D05C290BD0202912D39DB178
:1054B00094B1A042F1D30DE00127401C0090306070
:1054C00008E0224669462846FFF71EFE10B1009804
:1054D000A042E5D33846F8BDAFF300801CB50020EC
:1054E0000C4C8DF800008DF80400451E2A466946D4
:1054F000606A00F051FD2A4601A9606A00F04CFD87
:105500009DF800109DF80400FFF7A8FC0A20FFF7A3
:1055100027F9EBE70000002070B510B109B10023B6
:1055200006E0AFF30080C45CCD5CAC4202D15B1CF2
:105530009342F8D3934201D1012070BD002070BD89
:1055400030B5BBB000F06CF93D4D2AAC95E80F00CA
:1055500084E80F0000212AA81C3DFFF70DF9394C03
:105560002C350DF1B80CE06195E80F008CE80F00C8
:1055700000212EA82C3DFFF7FFF83C35206295E86E
:105580000F000DF1C80C3C3D8CE80F00002132A843
:10559000FFF7F2F84C35606295E80F0036AD85E80C
:1055A0000F00002136A8FFF7E7F82549A0621C226A
:1055B00040316846FAF704FE00216846FFF7EFF82D
:1055C0001F4920601C225C3107A8FAF7F9FD002171
:1055D00007A8FFF7E4F81A4960601C2278310EA88A
:1055E000FAF7EEFD00210EA8FFF7D9F81449A060E4
:1055F0001C22943115A8FAF7E3FD002115A8FFF746
:10560000CEF80F49E0601C22B0311CA8FAF7D8FD93
:1056100000211CA8FFF7C3F8094920611C22CC31E6
:1056200023A8FAF7CDFD002123A8FFF7B8F86061A1
:10563000002000F08FF900F013F93BB030BD0000FE
:10564000C46400080000002010B501460448FAF7C1
:10565000D0FD0449002048800870888010BD0000FB
:10566000400D00205808002038B50E4800248DF861
:10567000004000680068C043800611D44FF47A737C
:10568000012269460748FCF7AFFF0848064B9DF822
:10569000002041885A54491C4180012101708480B6
:1056A00038BD0000B00C0020400D0020580800203C
:1056B00010B500212048FCF76DFD04211E48FCF7C1
:1056C00069FD08211C48FCF765FDFF2211461046C4
:1056D000FFF744FCFDF768FCFBF7B2F94FF4FA74EE
:1056E0000BE02046FBF754FA14A0FEF77BF80021EC
:1056F000102317A20846FDF7F5FCFEF73BFA002839
:10570000EFD10021102317A20846FDF7EBFC102370
:1057100018A202210020FDF7E5FC102316A20221A9
:105720004020FDF7DFFC10230421BDE8104013A248
:105730000020FDF7D7BC0000200C00206468743105
:105740003120696E6974206661696C640D0A00001D
:10575000646874313120696E6974206661696C64B3
:1057600000000000416C6920436C6F756420494F54
:1057700054000000543A0000483A00004C3A00003F
:10578000D0E9013201699A60D0E901235A604A6880
:10579000824201D182684A60002202610868401E8C
:1057A0000860086870470000034B036003F1540071
:1057B0000860802010607047D808002000F10801C0
:1057C0004FF0FF32C0E90112C160016100210160A8
:1057D000704700210161704730B50B685A1C02D038
:1057E00000F1080202E0026904E0224654682568DC
:1057F0009D42FAD953684B6099608A605160086194
:105800000168491C016030BD42684A6093688B6042
:1058100093685960916008610168491C0160704794
:10582000502080F31188BFF34F8FBFF36F8F0A4969
:105830004868401C486001280CD10848006810F0F6
:10584000FF0F07D0502080F31188BFF34F8FBFF3B5
:105850006F8FFEE770470000C408002004ED00E0F1
:105860000849486828B1401E486001D180F311887A
:105870007047502080F31188BFF34F8FBFF36F8FB5
:10588000FEE70000C408002070B5002827D0144DA2
:10589000A0F108046168E868014207D1502080F354
:1058A0001188BFF34F8FBFF36F8FFEE722683AB1C5
:1058B000502080F31188BFF34F8FBFF36F8FFEE747
:1058C0008143616000F0F8F86068696808446860C6
:1058D0002046FFF7B7F9BDE8704000F083BD70BD0A
:1058E000AC0800204FF0E0200021016181610549F2
:1058F0004FF47A720968B1FBF2F1491E4161072148
:10590000016170472C00002010B5020014D00F4830
:10591000806B38B1502080F31188BFF34F8FBFF3F5
:105920006F8FFEE700F0C8F800211046FEF7DEFF9B
:1059300000F058FD002807D105494FF0805008605D
:10594000BFF34F8FBFF36F8F10BD000070080020B2
:1059500004ED00E070B50546FFF762FF254C05B980
:105960002568281DFFF70CFF58B9E86A224A00EBAA
:10597000800152F8211021B901218140A06988439A
:10598000A061A86A18B105F11800FFF7F9FEE06AF6
:10599000401CE0622068854208D11748291DC830A4
:1059A000FFF732FFE068401CE06007E02069401E1E
:1059B00020612846FFF783F8FFF778F9FFF750FFDB
:1059C000E069002814D02068854211D1A06B38B15D
:1059D000502080F31188BFF34F8FBFF36F8FFEE726
:1059E00006494FF080500860BFF34F8FBFF36F8FB1
:1059F00070BD000070080020400F002004ED00E0A2
:105A000002498A6A02604969416070477008002053
:105A100001490120486270477008002010B50C460B
:105A200050B1094909681831FFF7D6FE2046BDE894
:105A300010400121FEF75ABF502080F31188BFF3B8
:105A40004F8FBFF36F8FFEE77008002010B586B050
:105A50000024039405AA04A903A80494FFF7A4FE54
:105A6000DDE903010094CDE9011000230EA11048E7
:105A7000059A00F094FB0F490028486311D050208C
:105A800080F31188BFF34F8FBFF36F8F4FF0FF305C
:105A900008630120C8614C6106B0BDE8104000F009
:105AA00041B806B010BD000049444C45000000005C
:105AB000414B0008700800200248816B491C81633B
:105AC00070470000700800201448816B11B101215B
:105AD00041627047002141628169B1FA81F1C1F1EF
